{
  "contractName": "ArkyciaToken",
  "abi": [
    {
      "inputs": [
        {
          "internalType": "address",
          "name": "_router",
          "type": "address"
        },
        {
          "internalType": "address",
          "name": "_admin",
          "type": "address"
        }
      ],
      "stateMutability": "nonpayable",
      "type": "constructor"
    },
    {
      "anonymous": false,
      "inputs": [
        {
          "indexed": false,
          "internalType": "address",
          "name": "oldAdmin",
          "type": "address"
        },
        {
          "indexed": false,
          "internalType": "address",
          "name": "newAdmin",
          "type": "address"
        },
        {
          "indexed": false,
          "internalType": "uint256",
          "name": "time",
          "type": "uint256"
        }
      ],
      "name": "AdminChanged",
      "type": "event"
    },
    {
      "anonymous": false,
      "inputs": [
        {
          "indexed": true,
          "internalType": "address",
          "name": "owner",
          "type": "address"
        },
        {
          "indexed": true,
          "internalType": "address",
          "name": "spender",
          "type": "address"
        },
        {
          "indexed": false,
          "internalType": "uint256",
          "name": "value",
          "type": "uint256"
        }
      ],
      "name": "Approval",
      "type": "event"
    },
    {
      "anonymous": false,
      "inputs": [
        {
          "indexed": false,
          "internalType": "address",
          "name": "recipient",
          "type": "address"
        },
        {
          "indexed": false,
          "internalType": "uint256",
          "name": "amount",
          "type": "uint256"
        }
      ],
      "name": "MaticTransfer",
      "type": "event"
    },
    {
      "anonymous": false,
      "inputs": [
        {
          "indexed": false,
          "internalType": "address",
          "name": "oldStorageToken",
          "type": "address"
        },
        {
          "indexed": false,
          "internalType": "address",
          "name": "newStorageToken",
          "type": "address"
        }
      ],
      "name": "StorageTokenChanged",
      "type": "event"
    },
    {
      "anonymous": false,
      "inputs": [
        {
          "indexed": true,
          "internalType": "address",
          "name": "token",
          "type": "address"
        },
        {
          "indexed": false,
          "internalType": "uint256",
          "name": "amount",
          "type": "uint256"
        },
        {
          "indexed": true,
          "internalType": "address",
          "name": "to",
          "type": "address"
        }
      ],
      "name": "TokenTransfer",
      "type": "event"
    },
    {
      "anonymous": false,
      "inputs": [
        {
          "indexed": true,
          "internalType": "address",
          "name": "target",
          "type": "address"
        },
        {
          "indexed": false,
          "internalType": "uint256",
          "name": "lockDurationInSeconds",
          "type": "uint256"
        },
        {
          "indexed": false,
          "internalType": "uint256",
          "name": "tokenAllowance",
          "type": "uint256"
        }
      ],
      "name": "TokensLockedForWallet",
      "type": "event"
    },
    {
      "anonymous": false,
      "inputs": [
        {
          "indexed": true,
          "internalType": "address",
          "name": "from",
          "type": "address"
        },
        {
          "indexed": true,
          "internalType": "address",
          "name": "to",
          "type": "address"
        },
        {
          "indexed": false,
          "internalType": "uint256",
          "name": "amount",
          "type": "uint256"
        },
        {
          "indexed": true,
          "internalType": "uint256",
          "name": "date",
          "type": "uint256"
        }
      ],
      "name": "Transfer",
      "type": "event"
    },
    {
      "anonymous": false,
      "inputs": [
        {
          "indexed": true,
          "internalType": "address",
          "name": "from",
          "type": "address"
        },
        {
          "indexed": true,
          "internalType": "address",
          "name": "to",
          "type": "address"
        },
        {
          "indexed": false,
          "internalType": "uint256",
          "name": "value",
          "type": "uint256"
        }
      ],
      "name": "Transfer",
      "type": "event"
    },
    {
      "anonymous": false,
      "inputs": [
        {
          "indexed": false,
          "internalType": "address",
          "name": "router",
          "type": "address"
        }
      ],
      "name": "UpdatePancakeswapRouter",
      "type": "event"
    },
    {
      "anonymous": false,
      "inputs": [
        {
          "indexed": false,
          "internalType": "bool",
          "name": "manualSwapperDisabled",
          "type": "bool"
        }
      ],
      "name": "UpdatedManualSwapperDisabled",
      "type": "event"
    },
    {
      "inputs": [],
      "name": "_manualSwapperDisabled",
      "outputs": [
        {
          "internalType": "bool",
          "name": "",
          "type": "bool"
        }
      ],
      "stateMutability": "view",
      "type": "function",
      "constant": true
    },
    {
      "inputs": [],
      "name": "_maxTxAmount",
      "outputs": [
        {
          "internalType": "uint256",
          "name": "",
          "type": "uint256"
        }
      ],
      "stateMutability": "view",
      "type": "function",
      "constant": true
    },
    {
      "inputs": [],
      "name": "admin",
      "outputs": [
        {
          "internalType": "address",
          "name": "",
          "type": "address"
        }
      ],
      "stateMutability": "view",
      "type": "function",
      "constant": true
    },
    {
      "inputs": [
        {
          "internalType": "address",
          "name": "spender",
          "type": "address"
        },
        {
          "internalType": "uint256",
          "name": "subtractedValue",
          "type": "uint256"
        }
      ],
      "name": "decreaseAllowance",
      "outputs": [
        {
          "internalType": "bool",
          "name": "",
          "type": "bool"
        }
      ],
      "stateMutability": "nonpayable",
      "type": "function"
    },
    {
      "inputs": [
        {
          "internalType": "address",
          "name": "spender",
          "type": "address"
        },
        {
          "internalType": "uint256",
          "name": "addedValue",
          "type": "uint256"
        }
      ],
      "name": "increaseAllowance",
      "outputs": [
        {
          "internalType": "bool",
          "name": "",
          "type": "bool"
        }
      ],
      "stateMutability": "nonpayable",
      "type": "function"
    },
    {
      "stateMutability": "payable",
      "type": "receive",
      "payable": true
    },
    {
      "inputs": [
        {
          "internalType": "address",
          "name": "spender",
          "type": "address"
        },
        {
          "internalType": "uint256",
          "name": "amount",
          "type": "uint256"
        }
      ],
      "name": "approve",
      "outputs": [
        {
          "internalType": "bool",
          "name": "",
          "type": "bool"
        }
      ],
      "stateMutability": "nonpayable",
      "type": "function"
    },
    {
      "inputs": [
        {
          "internalType": "uint256",
          "name": "tokenAmount",
          "type": "uint256"
        }
      ],
      "name": "_burn",
      "outputs": [
        {
          "internalType": "bool",
          "name": "",
          "type": "bool"
        }
      ],
      "stateMutability": "nonpayable",
      "type": "function"
    },
    {
      "inputs": [
        {
          "internalType": "address",
          "name": "recipient",
          "type": "address"
        },
        {
          "internalType": "uint256",
          "name": "amount",
          "type": "uint256"
        }
      ],
      "name": "transfer",
      "outputs": [
        {
          "internalType": "bool",
          "name": "",
          "type": "bool"
        }
      ],
      "stateMutability": "nonpayable",
      "type": "function"
    },
    {
      "inputs": [
        {
          "internalType": "address",
          "name": "sender",
          "type": "address"
        },
        {
          "internalType": "address",
          "name": "recipient",
          "type": "address"
        },
        {
          "internalType": "uint256",
          "name": "amount",
          "type": "uint256"
        }
      ],
      "name": "transferFrom",
      "outputs": [
        {
          "internalType": "bool",
          "name": "",
          "type": "bool"
        }
      ],
      "stateMutability": "nonpayable",
      "type": "function"
    },
    {
      "inputs": [],
      "name": "totalSupply",
      "outputs": [
        {
          "internalType": "uint256",
          "name": "",
          "type": "uint256"
        }
      ],
      "stateMutability": "view",
      "type": "function",
      "constant": true
    },
    {
      "inputs": [
        {
          "internalType": "address",
          "name": "account",
          "type": "address"
        }
      ],
      "name": "balanceOf",
      "outputs": [
        {
          "internalType": "uint256",
          "name": "",
          "type": "uint256"
        }
      ],
      "stateMutability": "view",
      "type": "function",
      "constant": true
    },
    {
      "inputs": [
        {
          "internalType": "address",
          "name": "holder",
          "type": "address"
        },
        {
          "internalType": "address",
          "name": "spender",
          "type": "address"
        }
      ],
      "name": "allowance",
      "outputs": [
        {
          "internalType": "uint256",
          "name": "",
          "type": "uint256"
        }
      ],
      "stateMutability": "view",
      "type": "function",
      "constant": true
    },
    {
      "inputs": [],
      "name": "name",
      "outputs": [
        {
          "internalType": "string",
          "name": "",
          "type": "string"
        }
      ],
      "stateMutability": "pure",
      "type": "function",
      "constant": true
    },
    {
      "inputs": [],
      "name": "symbol",
      "outputs": [
        {
          "internalType": "string",
          "name": "",
          "type": "string"
        }
      ],
      "stateMutability": "pure",
      "type": "function",
      "constant": true
    },
    {
      "inputs": [],
      "name": "decimals",
      "outputs": [
        {
          "internalType": "uint8",
          "name": "",
          "type": "uint8"
        }
      ],
      "stateMutability": "pure",
      "type": "function",
      "constant": true
    },
    {
      "inputs": [
        {
          "internalType": "address",
          "name": "beneficiary",
          "type": "address"
        }
      ],
      "name": "isTxLimitExempt",
      "outputs": [
        {
          "internalType": "bool",
          "name": "",
          "type": "bool"
        }
      ],
      "stateMutability": "view",
      "type": "function",
      "constant": true
    },
    {
      "inputs": [
        {
          "internalType": "address",
          "name": "target",
          "type": "address"
        }
      ],
      "name": "isTokenLocked",
      "outputs": [
        {
          "internalType": "bool",
          "name": "",
          "type": "bool"
        }
      ],
      "stateMutability": "view",
      "type": "function",
      "constant": true
    },
    {
      "inputs": [
        {
          "internalType": "address",
          "name": "target",
          "type": "address"
        }
      ],
      "name": "timeLeftUntilTokensUnlock",
      "outputs": [
        {
          "internalType": "uint256",
          "name": "",
          "type": "uint256"
        }
      ],
      "stateMutability": "view",
      "type": "function",
      "constant": true
    },
    {
      "inputs": [
        {
          "internalType": "address",
          "name": "wallet",
          "type": "address"
        }
      ],
      "name": "nTokensLeftToSpendForLockedWallet",
      "outputs": [
        {
          "internalType": "uint256",
          "name": "",
          "type": "uint256"
        }
      ],
      "stateMutability": "view",
      "type": "function",
      "constant": true
    },
    {
      "inputs": [
        {
          "internalType": "address",
          "name": "wallet",
          "type": "address"
        }
      ],
      "name": "isBlacklisted",
      "outputs": [
        {
          "internalType": "bool",
          "name": "",
          "type": "bool"
        }
      ],
      "stateMutability": "view",
      "type": "function",
      "constant": true
    },
    {
      "inputs": [
        {
          "internalType": "address",
          "name": "token",
          "type": "address"
        }
      ],
      "name": "balanceOfTokens",
      "outputs": [
        {
          "internalType": "uint256",
          "name": "",
          "type": "uint256"
        }
      ],
      "stateMutability": "view",
      "type": "function",
      "constant": true
    },
    {
      "inputs": [],
      "name": "maticBalance",
      "outputs": [
        {
          "internalType": "uint256",
          "name": "",
          "type": "uint256"
        }
      ],
      "stateMutability": "view",
      "type": "function",
      "constant": true
    },
    {
      "inputs": [],
      "name": "arkyciaTokenBalance",
      "outputs": [
        {
          "internalType": "uint256",
          "name": "",
          "type": "uint256"
        }
      ],
      "stateMutability": "view",
      "type": "function",
      "constant": true
    },
    {
      "inputs": [
        {
          "internalType": "uint256",
          "name": "maticAmt",
          "type": "uint256"
        }
      ],
      "name": "getAmountsOut",
      "outputs": [
        {
          "internalType": "uint256",
          "name": "",
          "type": "uint256"
        }
      ],
      "stateMutability": "view",
      "type": "function",
      "constant": true
    },
    {
      "inputs": [
        {
          "internalType": "address",
          "name": "newAdmin",
          "type": "address"
        }
      ],
      "name": "changeAdmin",
      "outputs": [],
      "stateMutability": "nonpayable",
      "type": "function"
    },
    {
      "inputs": [
        {
          "internalType": "address",
          "name": "_router",
          "type": "address"
        }
      ],
      "name": "updateRouterAddress",
      "outputs": [
        {
          "internalType": "bool",
          "name": "",
          "type": "bool"
        }
      ],
      "stateMutability": "nonpayable",
      "type": "function"
    },
    {
      "inputs": [
        {
          "internalType": "uint256",
          "name": "amount",
          "type": "uint256"
        }
      ],
      "name": "changeMaxTxLimit",
      "outputs": [],
      "stateMutability": "nonpayable",
      "type": "function"
    },
    {
      "inputs": [
        {
          "internalType": "address",
          "name": "target",
          "type": "address"
        },
        {
          "internalType": "uint256",
          "name": "lockDurationInSeconds",
          "type": "uint256"
        },
        {
          "internalType": "uint256",
          "name": "tokenAllowance",
          "type": "uint256"
        }
      ],
      "name": "lockTokens",
      "outputs": [
        {
          "internalType": "bool",
          "name": "",
          "type": "bool"
        }
      ],
      "stateMutability": "nonpayable",
      "type": "function"
    },
    {
      "inputs": [
        {
          "internalType": "address",
          "name": "target",
          "type": "address"
        },
        {
          "internalType": "bool",
          "name": "isExempt",
          "type": "bool"
        }
      ],
      "name": "changeTxLimitPermission",
      "outputs": [],
      "stateMutability": "nonpayable",
      "type": "function"
    },
    {
      "inputs": [
        {
          "internalType": "address",
          "name": "_usdc",
          "type": "address"
        }
      ],
      "name": "changeUsdcAddress",
      "outputs": [],
      "stateMutability": "nonpayable",
      "type": "function"
    },
    {
      "inputs": [
        {
          "internalType": "address",
          "name": "token",
          "type": "address"
        },
        {
          "internalType": "address",
          "name": "to",
          "type": "address"
        },
        {
          "internalType": "uint256",
          "name": "amount",
          "type": "uint256"
        }
      ],
      "name": "withdrawToken",
      "outputs": [
        {
          "internalType": "bool",
          "name": "",
          "type": "bool"
        }
      ],
      "stateMutability": "nonpayable",
      "type": "function"
    },
    {
      "inputs": [
        {
          "internalType": "address",
          "name": "to",
          "type": "address"
        },
        {
          "internalType": "uint256",
          "name": "amount",
          "type": "uint256"
        }
      ],
      "name": "withdrawArkyciaToken",
      "outputs": [
        {
          "internalType": "bool",
          "name": "",
          "type": "bool"
        }
      ],
      "stateMutability": "nonpayable",
      "type": "function"
    },
    {
      "inputs": [
        {
          "internalType": "address payable",
          "name": "to",
          "type": "address"
        },
        {
          "internalType": "uint256",
          "name": "amount",
          "type": "uint256"
        }
      ],
      "name": "withdrawMatic",
      "outputs": [
        {
          "internalType": "bool",
          "name": "",
          "type": "bool"
        }
      ],
      "stateMutability": "nonpayable",
      "type": "function"
    },
    {
      "inputs": [
        {
          "internalType": "uint256",
          "name": "_price",
          "type": "uint256"
        }
      ],
      "name": "changePriceWithEighteenDecimals",
      "outputs": [],
      "stateMutability": "nonpayable",
      "type": "function"
    },
    {
      "inputs": [
        {
          "internalType": "bool",
          "name": "manualSwapperDisabled",
          "type": "bool"
        }
      ],
      "name": "setManualSwapperDisabled",
      "outputs": [],
      "stateMutability": "nonpayable",
      "type": "function"
    },
    {
      "inputs": [
        {
          "internalType": "address",
          "name": "wallet",
          "type": "address"
        },
        {
          "internalType": "bool",
          "name": "blacklist",
          "type": "bool"
        }
      ],
      "name": "blacklistWallet",
      "outputs": [],
      "stateMutability": "nonpayable",
      "type": "function"
    }
  ],
  "bytecode": "0x60806040526c01431e0fae6d7217caa00000006005556200003260646005546200062d60201b620028bb1790919060201c565b600655662e2f6e5e148000600f556001601060006101000a81548160ff021916908315150217905550732791bca1f2de4661ed88a30c99a7a9449aa84174601060016101000a81548173ffffffffffffffffffffffffffffffffffffffff021916908373ffffffffffffffffffffffffffffffffffffffff160217905550348015620000bd57600080fd5b5060405162004e4b38038062004e4b8339818101604052810190620000e39190620007c7565b6040518060400160405280600d81526020017f41726b7963696120546f6b656e000000000000000000000000000000000000008152506040518060400160405280600481526020017f41524b590000000000000000000000000000000000000000000000000000000081525081600390805190602001906200016792919062000645565b5080600490805190602001906200018092919062000645565b50505080600760006101000a81548173ffffffffffffffffffffffffffffffffffffffff021916908373ffffffffffffffffffffffffffffffffffffffff1602179055506001600a6000600760009054906101000a900473ffffffffffffffffffffffffffffffffffffffff1673ffffffffffffffffffffffffffffffffffffffff1673ffffffffffffffffffffffffffffffffffffffff16815260200190815260200160002060006101000a81548160ff0219169083151502179055506001600a60003073ffffffffffffffffffffffffffffffffffffffff1673ffffffffffffffffffffffffffffffffffffffff16815260200190815260200160002060006101000a81548160ff02191690831515021790555081600d60006101000a81548173ffffffffffffffffffffffffffffffffffffffff021916908373ffffffffffffffffffffffffffffffffffffffff160217905550600267ffffffffffffffff81111562000319577f4e487b7100000000000000000000000000000000000000000000000000000000600052604160045260246000fd5b604051908082528060200260200182016040528015620003485781602001602082028036833780820191505090505b50600e908051906020019062000360929190620006d6565b50600d60009054906101000a900473ffffffffffffffffffffffffffffffffffffffff1673ffffffffffffffffffffffffffffffffffffffff1663ad5c46486040518163ffffffff1660e01b815260040160206040518083038186803b158015620003ca57600080fd5b505afa158015620003df573d6000803e3d6000fd5b505050506040513d601f19601f820116820180604052508101906200040591906200079b565b600e60008154811062000441577f4e487b7100000000000000000000000000000000000000000000000000000000600052603260045260246000fd5b9060005260206000200160006101000a81548173ffffffffffffffffffffffffffffffffffffffff021916908373ffffffffffffffffffffffffffffffffffffffff160217905550601060019054906101000a900473ffffffffffffffffffffffffffffffffffffffff16600e600181548110620004e8577f4e487b7100000000000000000000000000000000000000000000000000000000600052603260045260246000fd5b9060005260206000200160006101000a81548173ffffffffffffffffffffffffffffffffffffffff021916908373ffffffffffffffffffffffffffffffffffffffff16021790555060055460086000600760009054906101000a900473ffffffffffffffffffffffffffffffffffffffff1673ffffffffffffffffffffffffffffffffffffffff1673ffffffffffffffffffffffffffffffffffffffff1681526020019081526020016000208190555042600760009054906101000a900473ffffffffffffffffffffffffffffffffffffffff1673ffffffffffffffffffffffffffffffffffffffff16600073ffffffffffffffffffffffffffffffffffffffff167f9ed053bb818ff08b8353cd46f78db1f0799f31c9e4458fdb425c10eccd2efc446005546040516200061d919062000819565b60405180910390a450506200095a565b600081836200063d919062000836565b905092915050565b8280546200065390620008ac565b90600052602060002090601f016020900481019282620006775760008555620006c3565b82601f106200069257805160ff1916838001178555620006c3565b82800160010185558215620006c3579182015b82811115620006c2578251825591602001919060010190620006a5565b5b509050620006d2919062000765565b5090565b82805482825590600052602060002090810192821562000752579160200282015b82811115620007515782518260006101000a81548173ffffffffffffffffffffffffffffffffffffffff021916908373ffffffffffffffffffffffffffffffffffffffff16021790555091602001919060010190620006f7565b5b50905062000761919062000765565b5090565b5b808211156200078057600081600090555060010162000766565b5090565b600081519050620007958162000940565b92915050565b600060208284031215620007ae57600080fd5b6000620007be8482850162000784565b91505092915050565b60008060408385031215620007db57600080fd5b6000620007eb8582860162000784565b9250506020620007fe8582860162000784565b9150509250929050565b6200081381620008a2565b82525050565b600060208201905062000830600083018462000808565b92915050565b60006200084382620008a2565b91506200085083620008a2565b925082620008635762000862620008e2565b5b828204905092915050565b60006200087b8262000882565b9050919050565b600073ffffffffffffffffffffffffffffffffffffffff82169050919050565b6000819050919050565b60006002820490506001821680620008c557607f821691505b60208210811415620008dc57620008db62000911565b5b50919050565b7f4e487b7100000000000000000000000000000000000000000000000000000000600052601260045260246000fd5b7f4e487b7100000000000000000000000000000000000000000000000000000000600052602260045260246000fd5b6200094b816200086e565b81146200095757600080fd5b50565b6144e1806200096a6000396000f3fe6080604052600436106102125760003560e01c80637d1db4a511610118578063b2d62cff116100a0578063e9b39e2a1161006f578063e9b39e2a14610a5d578063f851a44014610a86578063f8edf1fb14610ab1578063f9f6186e14610ada578063fe575a8714610b05576103d7565b8063b2d62cff14610969578063c1153aaa146109a6578063cd9368aa146109e3578063dd62ed3e14610a20576103d7565b8063975111e7116100e7578063975111e71461084a5780639b1f9e7414610875578063a25983e5146108b2578063a457c2d7146108ef578063a9059cbb1461092c576103d7565b80637d1db4a51461078e5780638b42507f146107b95780638f283970146107f657806395d89b411461081f576103d7565b80632266bc891161019b578063395093511161016a57806339509351146106715780633bd2f97a146106ae5780635eb04347146106eb5780635ff03e661461071457806370a0823114610751576103d7565b80632266bc89146105a357806323b872dd146105cc5780632ff57da814610609578063313ce56714610646576103d7565b8063095ea7b3116101e2578063095ea7b3146104aa5780630dab7c04146104e7578063129476ab146105245780631458d9d81461054d57806318160ddd14610578576103d7565b8062e6be7b146103dc57806301e33667146104195780630313cf681461045657806306fdde031461047f576103d7565b366103d75761022033610b42565b15610260576040517f08c379a000000000000000000000000000000000000000000000000000000000815260040161025790614001565b60405180910390fd5b601060009054906101000a900460ff16156102b0576040517f08c379a00000000000000000000000000000000000000000000000000000000081526004016102a790613f61565b60405180910390fd5b3073ffffffffffffffffffffffffffffffffffffffff163373ffffffffffffffffffffffffffffffffffffffff1614156102e9576103d5565b60006102f434610b98565b905060008111610339576040517f08c379a000000000000000000000000000000000000000000000000000000000815260040161033090613e21565b60405180910390fd5b80610342610cfd565b1015610383576040517f08c379a000000000000000000000000000000000000000000000000000000000815260040161037a90613e81565b60405180910390fd5b6000610390303384610d8d565b9050806103d2576040517f08c379a00000000000000000000000000000000000000000000000000000000081526004016103c990613ec1565b60405180910390fd5b50505b005b600080fd5b3480156103e857600080fd5b5061040360048036038101906103fe9190613218565b610f30565b6040516104109190613d24565b60405180910390f35b34801561042557600080fd5b50610440600480360381019061043b91906132e2565b611230565b60405161044d9190613d24565b60405180910390f35b34801561046257600080fd5b5061047d60048036038101906104789190613331565b61153f565b005b34801561048b57600080fd5b5061049461162a565b6040516104a19190613d3f565b60405180910390f35b3480156104b657600080fd5b506104d160048036038101906104cc919061336d565b611667565b6040516104de9190613d24565b60405180910390f35b3480156104f357600080fd5b5061050e60048036038101906105099190613218565b6117a4565b60405161051b9190614021565b60405180910390f35b34801561053057600080fd5b5061054b60048036038101906105469190613331565b6117f0565b005b34801561055957600080fd5b506105626118db565b60405161056f9190614021565b60405180910390f35b34801561058457600080fd5b5061058d6118e3565b60405161059a9190614021565b60405180910390f35b3480156105af57600080fd5b506105ca60048036038101906105c59190613439565b6118ed565b005b3480156105d857600080fd5b506105f360048036038101906105ee91906132e2565b610d8d565b6040516106009190613d24565b60405180910390f35b34801561061557600080fd5b50610630600480360381019061062b9190613218565b6119d1565b60405161063d9190614021565b60405180910390f35b34801561065257600080fd5b5061065b611a63565b6040516106689190614095565b60405180910390f35b34801561067d57600080fd5b506106986004803603810190610693919061336d565b611a6c565b6040516106a59190613d24565b60405180910390f35b3480156106ba57600080fd5b506106d560048036038101906106d09190613218565b611b18565b6040516106e29190614021565b60405180910390f35b3480156106f757600080fd5b50610712600480360381019061070d919061348b565b611c40565b005b34801561072057600080fd5b5061073b60048036038101906107369190613218565b611cda565b6040516107489190613d24565b60405180910390f35b34801561075d57600080fd5b5061077860048036038101906107739190613218565b611d33565b6040516107859190614021565b60405180910390f35b34801561079a57600080fd5b506107a3611d7c565b6040516107b09190614021565b60405180910390f35b3480156107c557600080fd5b506107e060048036038101906107db9190613218565b611d82565b6040516107ed9190613d24565b60405180910390f35b34801561080257600080fd5b5061081d60048036038101906108189190613218565b611dd8565b005b34801561082b57600080fd5b50610834611f0f565b6040516108419190613d3f565b60405180910390f35b34801561085657600080fd5b5061085f611f4c565b60405161086c9190613d24565b60405180910390f35b34801561088157600080fd5b5061089c6004803603810190610897919061348b565b611f5f565b6040516108a99190613d24565b60405180910390f35b3480156108be57600080fd5b506108d960048036038101906108d491906133a9565b6120c9565b6040516108e69190613d24565b60405180910390f35b3480156108fb57600080fd5b506109166004803603810190610911919061336d565b6122ef565b6040516109239190613d24565b60405180910390f35b34801561093857600080fd5b50610953600480360381019061094e919061336d565b6123da565b6040516109609190613d24565b60405180910390f35b34801561097557600080fd5b50610990600480360381019061098b919061336d565b6123ef565b60405161099d9190613d24565b60405180910390f35b3480156109b257600080fd5b506109cd60048036038101906109c8919061348b565b610b98565b6040516109da9190614021565b60405180910390f35b3480156109ef57600080fd5b50610a0a6004803603810190610a05919061326a565b6124db565b604051610a179190613d24565b60405180910390f35b348015610a2c57600080fd5b50610a476004803603810190610a4291906132a6565b6126a0565b604051610a549190614021565b60405180910390f35b348015610a6957600080fd5b50610a846004803603810190610a7f9190613218565b612727565b005b348015610a9257600080fd5b50610a9b6127fb565b604051610aa89190613c80565b60405180910390f35b348015610abd57600080fd5b50610ad86004803603810190610ad3919061348b565b612821565b005b348015610ae657600080fd5b50610aef610cfd565b604051610afc9190614021565b60405180910390f35b348015610b1157600080fd5b50610b2c6004803603810190610b279190613218565b610b42565b604051610b399190613d24565b60405180910390f35b6000600c60008373ffffffffffffffffffffffffffffffffffffffff1673ffffffffffffffffffffffffffffffffffffffff16815260200190815260200160002060009054906101000a900460ff169050919050565b600080600d60009054906101000a900473ffffffffffffffffffffffffffffffffffffffff1673ffffffffffffffffffffffffffffffffffffffff1663d06ca61f84600e6040518363ffffffff1660e01b8152600401610bf992919061403c565b60006040518083038186803b158015610c1157600080fd5b505afa158015610c25573d6000803e3d6000fd5b505050506040513d6000823e3d601f19601f82011682018060405250810190610c4e91906133f8565b600181518110610c87577f4e487b7100000000000000000000000000000000000000000000000000000000600052603260045260246000fd5b602002602001015190506000610cf1670de0b6b3a7640000610ce3610cba620f4240600f546128d190919063ffffffff16565b610cd5670de0b6b3a7640000876128d190919063ffffffff16565b6128bb90919063ffffffff16565b6128d190919063ffffffff16565b90508092505050919050565b60003073ffffffffffffffffffffffffffffffffffffffff166370a08231306040518263ffffffff1660e01b8152600401610d389190613c80565b60206040518083038186803b158015610d5057600080fd5b505afa158015610d64573d6000803e3d6000fd5b505050506040513d601f19601f82011682018060405250810190610d8891906134b4565b905090565b60003073ffffffffffffffffffffffffffffffffffffffff168473ffffffffffffffffffffffffffffffffffffffff161415610dd557610dce8484846128e7565b9050610f29565b610e9b826040518060400160405280601681526020017f496e73756666696369656e7420416c6c6f77616e636500000000000000000000815250600960008873ffffffffffffffffffffffffffffffffffffffff1673ffffffffffffffffffffffffffffffffffffffff16815260200190815260200160002060003373ffffffffffffffffffffffffffffffffffffffff1673ffffffffffffffffffffffffffffffffffffffff16815260200190815260200160002054612e9b9092919063ffffffff16565b600960008673ffffffffffffffffffffffffffffffffffffffff1673ffffffffffffffffffffffffffffffffffffffff16815260200190815260200160002060003373ffffffffffffffffffffffffffffffffffffffff1673ffffffffffffffffffffffffffffffffffffffff16815260200190815260200160002081905550610f268484846128e7565b90505b9392505050565b6000600760009054906101000a900473ffffffffffffffffffffffffffffffffffffffff1673ffffffffffffffffffffffffffffffffffffffff163373ffffffffffffffffffffffffffffffffffffffff1614610fc2576040517f08c379a0000000000000000000000000000000000000000000000000000000008152600401610fb990613e01565b60405180910390fd5b600d60009054906101000a900473ffffffffffffffffffffffffffffffffffffffff1673ffffffffffffffffffffffffffffffffffffffff168273ffffffffffffffffffffffffffffffffffffffff161415801561104d5750600073ffffffffffffffffffffffffffffffffffffffff168273ffffffffffffffffffffffffffffffffffffffff1614155b61108c576040517f08c379a000000000000000000000000000000000000000000000000000000000815260040161108390613f21565b60405180910390fd5b81600d60006101000a81548173ffffffffffffffffffffffffffffffffffffffff021916908373ffffffffffffffffffffffffffffffffffffffff160217905550600d60009054906101000a900473ffffffffffffffffffffffffffffffffffffffff1673ffffffffffffffffffffffffffffffffffffffff1663ad5c46486040518163ffffffff1660e01b815260040160206040518083038186803b15801561113557600080fd5b505afa158015611149573d6000803e3d6000fd5b505050506040513d601f19601f8201168201806040525081019061116d9190613241565b600e6000815481106111a8577f4e487b7100000000000000000000000000000000000000000000000000000000600052603260045260246000fd5b9060005260206000200160006101000a81548173ffffffffffffffffffffffffffffffffffffffff021916908373ffffffffffffffffffffffffffffffffffffffff1602179055507f579f95a093ee58c589ce32de181ce9c8fccc3ed58c5b2bfef5b7a14d1e77194c8260405161121f9190613c80565b60405180910390a160019050919050565b6000600760009054906101000a900473ffffffffffffffffffffffffffffffffffffffff1673ffffffffffffffffffffffffffffffffffffffff163373ffffffffffffffffffffffffffffffffffffffff16146112c2576040517f08c379a00000000000000000000000000000000000000000000000000000000081526004016112b990613e01565b60405180910390fd5b818473ffffffffffffffffffffffffffffffffffffffff166370a08231306040518263ffffffff1660e01b81526004016112fc9190613c80565b60206040518083038186803b15801561131457600080fd5b505afa158015611328573d6000803e3d6000fd5b505050506040513d601f19601f8201168201806040525081019061134c91906134b4565b101561138d576040517f08c379a000000000000000000000000000000000000000000000000000000000815260040161138490613ea1565b60405180910390fd5b600073ffffffffffffffffffffffffffffffffffffffff168373ffffffffffffffffffffffffffffffffffffffff1614156113fd576040517f08c379a00000000000000000000000000000000000000000000000000000000081526004016113f490613fe1565b60405180910390fd5b60008473ffffffffffffffffffffffffffffffffffffffff1663a9059cbb85856040518363ffffffff1660e01b815260040161143a929190613cfb565b602060405180830381600087803b15801561145457600080fd5b505af1158015611468573d6000803e3d6000fd5b505050506040513d601f19601f8201168201806040525081019061148c9190613462565b9050806114ce576040517f08c379a00000000000000000000000000000000000000000000000000000000081526004016114c590613d81565b60405180910390fd5b8373ffffffffffffffffffffffffffffffffffffffff168573ffffffffffffffffffffffffffffffffffffffff167fe9001e94dcb1564a47a8ad9116dfc37603e2c82e303ac9ce65dd8747d02ce0b48560405161152b9190614021565b60405180910390a360019150509392505050565b600760009054906101000a900473ffffffffffffffffffffffffffffffffffffffff1673ffffffffffffffffffffffffffffffffffffffff163373ffffffffffffffffffffffffffffffffffffffff16146115cf576040517f08c379a00000000000000000000000000000000000000000000000000000000081526004016115c690613e01565b60405180910390fd5b80600a60008473ffffffffffffffffffffffffffffffffffffffff1673ffffffffffffffffffffffffffffffffffffffff16815260200190815260200160002060006101000a81548160ff0219169083151502179055505050565b60606040518060400160405280600d81526020017f41726b7963696120546f6b656e00000000000000000000000000000000000000815250905090565b60008161167333611d33565b10156116b4576040517f08c379a00000000000000000000000000000000000000000000000000000000081526004016116ab90613d61565b60405180910390fd5b81600960003373ffffffffffffffffffffffffffffffffffffffff1673ffffffffffffffffffffffffffffffffffffffff16815260200190815260200160002060008573ffffffffffffffffffffffffffffffffffffffff1673ffffffffffffffffffffffffffffffffffffffff168152602001908152602001600020819055508273ffffffffffffffffffffffffffffffffffffffff163373ffffffffffffffffffffffffffffffffffffffff167f8c5be1e5ebec7d5bd14f71427d1e84f3dd0314c0f7b2291e5b200ac8c7c3b925846040516117929190614021565b60405180910390a36001905092915050565b6000600b60008373ffffffffffffffffffffffffffffffffffffffff1673ffffffffffffffffffffffffffffffffffffffff168152602001908152602001600020600301549050919050565b600760009054906101000a900473ffffffffffffffffffffffffffffffffffffffff1673ffffffffffffffffffffffffffffffffffffffff163373ffffffffffffffffffffffffffffffffffffffff1614611880576040517f08c379a000000000000000000000000000000000000000000000000000000000815260040161187790613e01565b60405180910390fd5b80600c60008473ffffffffffffffffffffffffffffffffffffffff1673ffffffffffffffffffffffffffffffffffffffff16815260200190815260200160002060006101000a81548160ff0219169083151502179055505050565b600047905090565b6000600554905090565b600760009054906101000a900473ffffffffffffffffffffffffffffffffffffffff1673ffffffffffffffffffffffffffffffffffffffff163373ffffffffffffffffffffffffffffffffffffffff161461197d576040517f08c379a000000000000000000000000000000000000000000000000000000000815260040161197490613e01565b60405180910390fd5b80601060006101000a81548160ff0219169083151502179055507f0de87de5961b655ff7973c59cd985530179e314561451a29349af239cd6a474b816040516119c69190613d24565b60405180910390a150565b60008173ffffffffffffffffffffffffffffffffffffffff166370a08231306040518263ffffffff1660e01b8152600401611a0c9190613c80565b60206040518083038186803b158015611a2457600080fd5b505afa158015611a38573d6000803e3d6000fd5b505050506040513d601f19601f82011682018060405250810190611a5c91906134b4565b9050919050565b60006012905090565b6000611b0e611a79612ef0565b848460016000611a87612ef0565b73ffffffffffffffffffffffffffffffffffffffff1673ffffffffffffffffffffffffffffffffffffffff16815260200190815260200160002060008873ffffffffffffffffffffffffffffffffffffffff1673ffffffffffffffffffffffffffffffffffffffff16815260200190815260200160002054611b099190614172565b612ef8565b6001905092915050565b6000600b60008373ffffffffffffffffffffffffffffffffffffffff1673ffffffffffffffffffffffffffffffffffffffff16815260200190815260200160002060000160009054906101000a900460ff1615611c36576000611c08600b60008573ffffffffffffffffffffffffffffffffffffffff1673ffffffffffffffffffffffffffffffffffffffff16815260200190815260200160002060020154600b60008673ffffffffffffffffffffffffffffffffffffffff1673ffffffffffffffffffffffffffffffffffffffff168152602001908152602001600020600101546130c390919063ffffffff16565b9050428111611c1b576000915050611c3b565b611c2e42826130d990919063ffffffff16565b915050611c3b565b600090505b919050565b600760009054906101000a900473ffffffffffffffffffffffffffffffffffffffff1673ffffffffffffffffffffffffffffffffffffffff163373ffffffffffffffffffffffffffffffffffffffff1614611cd0576040517f08c379a0000000000000000000000000000000000000000000000000000000008152600401611cc790613e01565b60405180910390fd5b8060068190555050565b6000600b60008373ffffffffffffffffffffffffffffffffffffffff1673ffffffffffffffffffffffffffffffffffffffff16815260200190815260200160002060000160009054906101000a900460ff169050919050565b6000600860008373ffffffffffffffffffffffffffffffffffffffff1673ffffffffffffffffffffffffffffffffffffffff168152602001908152602001600020549050919050565b60065481565b6000600a60008373ffffffffffffffffffffffffffffffffffffffff1673ffffffffffffffffffffffffffffffffffffffff16815260200190815260200160002060009054906101000a900460ff169050919050565b600760009054906101000a900473ffffffffffffffffffffffffffffffffffffffff1673ffffffffffffffffffffffffffffffffffffffff163373ffffffffffffffffffffffffffffffffffffffff1614611e68576040517f08c379a0000000000000000000000000000000000000000000000000000000008152600401611e5f90613e01565b60405180910390fd5b6000600760009054906101000a900473ffffffffffffffffffffffffffffffffffffffff16905081600760006101000a81548173ffffffffffffffffffffffffffffffffffffffff021916908373ffffffffffffffffffffffffffffffffffffffff1602179055507f766be043f7e09e95a2812f6c40555ea1bbaf526780a5412e1db72a3489ad8e73818342604051611f0393929190613cc4565b60405180910390a15050565b60606040518060400160405280600481526020017f41524b5900000000000000000000000000000000000000000000000000000000815250905090565b601060009054906101000a900460ff1681565b600080821415611f7257600090506120c4565b611ffb826040518060400160405280600f81526020017f42616c616e636520746f6f206c6f770000000000000000000000000000000000815250600860003373ffffffffffffffffffffffffffffffffffffffff1673ffffffffffffffffffffffffffffffffffffffff16815260200190815260200160002054612e9b9092919063ffffffff16565b600860003373ffffffffffffffffffffffffffffffffffffffff1673ffffffffffffffffffffffffffffffffffffffff16815260200190815260200160002081905550612053826005546130d990919063ffffffff16565b600581905550600073ffffffffffffffffffffffffffffffffffffffff163373ffffffffffffffffffffffffffffffffffffffff167fddf252ad1be2c89b69c2b068fc378daa952ba7f163c4a11628f55a4df523b3ef846040516120b79190614021565b60405180910390a3600190505b919050565b6000600760009054906101000a900473ffffffffffffffffffffffffffffffffffffffff1673ffffffffffffffffffffffffffffffffffffffff163373ffffffffffffffffffffffffffffffffffffffff161461215b576040517f08c379a000000000000000000000000000000000000000000000000000000000815260040161215290613e01565b60405180910390fd5b6301e133808311156121a2576040517f08c379a000000000000000000000000000000000000000000000000000000000815260040161219990613fa1565b60405180910390fd5b620151806121af85611b18565b11156121f0576040517f08c379a00000000000000000000000000000000000000000000000000000000081526004016121e790613dc1565b60405180910390fd5b604051806080016040528060011515815260200142815260200184815260200183815250600b60008673ffffffffffffffffffffffffffffffffffffffff1673ffffffffffffffffffffffffffffffffffffffff16815260200190815260200160002060008201518160000160006101000a81548160ff0219169083151502179055506020820151816001015560408201518160020155606082015181600301559050508373ffffffffffffffffffffffffffffffffffffffff167fe9bd5809a29d35f1da4d3da571947279db1653088f63bd47547fe937560c78bf84846040516122dc92919061406c565b60405180910390a2600190509392505050565b600080600160006122fe612ef0565b73ffffffffffffffffffffffffffffffffffffffff1673ffffffffffffffffffffffffffffffffffffffff16815260200190815260200160002060008573ffffffffffffffffffffffffffffffffffffffff1673ffffffffffffffffffffffffffffffffffffffff168152602001908152602001600020549050828110156123bb576040517f08c379a00000000000000000000000000000000000000000000000000000000081526004016123b290613fc1565b60405180910390fd5b6123cf6123c6612ef0565b85858403612ef8565b600191505092915050565b60006123e73384846128e7565b905092915050565b6000600760009054906101000a900473ffffffffffffffffffffffffffffffffffffffff1673ffffffffffffffffffffffffffffffffffffffff163373ffffffffffffffffffffffffffffffffffffffff1614612481576040517f08c379a000000000000000000000000000000000000000000000000000000000815260040161247890613e01565b60405180910390fd5b600061248e308585611230565b9050806124d0576040517f08c379a00000000000000000000000000000000000000000000000000000000081526004016124c790613e61565b60405180910390fd5b600191505092915050565b6000600760009054906101000a900473ffffffffffffffffffffffffffffffffffffffff1673ffffffffffffffffffffffffffffffffffffffff163373ffffffffffffffffffffffffffffffffffffffff161461256d576040517f08c379a000000000000000000000000000000000000000000000000000000000815260040161256490613e01565b60405180910390fd5b814710156125b0576040517f08c379a00000000000000000000000000000000000000000000000000000000081526004016125a790613e41565b60405180910390fd5b60008373ffffffffffffffffffffffffffffffffffffffff16836040516125d690613c6b565b60006040518083038185875af1925050503d8060008114612613576040519150601f19603f3d011682016040523d82523d6000602084013e612618565b606091505b505090508061265c576040517f08c379a000000000000000000000000000000000000000000000000000000000815260040161265390613ee1565b60405180910390fd5b7f491a3bbda43db4a1167100ae2a2a888673aabbfbcdd43e42a33a329998942bef848460405161268d929190613c9b565b60405180910390a1600191505092915050565b6000600960008473ffffffffffffffffffffffffffffffffffffffff1673ffffffffffffffffffffffffffffffffffffffff16815260200190815260200160002060008373ffffffffffffffffffffffffffffffffffffffff1673ffffffffffffffffffffffffffffffffffffffff16815260200190815260200160002054905092915050565b600760009054906101000a900473ffffffffffffffffffffffffffffffffffffffff1673ffffffffffffffffffffffffffffffffffffffff163373ffffffffffffffffffffffffffffffffffffffff16146127b7576040517f08c379a00000000000000000000000000000000000000000000000000000000081526004016127ae90613e01565b60405180910390fd5b80601060016101000a81548173ffffffffffffffffffffffffffffffffffffffff021916908373ffffffffffffffffffffffffffffffffffffffff16021790555050565b600760009054906101000a900473ffffffffffffffffffffffffffffffffffffffff1681565b600760009054906101000a900473ffffffffffffffffffffffffffffffffffffffff1673ffffffffffffffffffffffffffffffffffffffff163373ffffffffffffffffffffffffffffffffffffffff16146128b1576040517f08c379a00000000000000000000000000000000000000000000000000000000081526004016128a890613e01565b60405180910390fd5b80600f8190555050565b600081836128c991906141c8565b905092915050565b600081836128df91906141f9565b905092915050565b60008073ffffffffffffffffffffffffffffffffffffffff168373ffffffffffffffffffffffffffffffffffffffff161415612958576040517f08c379a000000000000000000000000000000000000000000000000000000000815260040161294f90613de1565b60405180910390fd5b6000821161299b576040517f08c379a000000000000000000000000000000000000000000000000000000000815260040161299290613f41565b60405180910390fd5b600654821115806129f55750600a60008573ffffffffffffffffffffffffffffffffffffffff1673ffffffffffffffffffffffffffffffffffffffff16815260200190815260200160002060009054906101000a900460ff165b612a34576040517f08c379a0000000000000000000000000000000000000000000000000000000008152600401612a2b90613f01565b60405180910390fd5b612a3d84610b42565b158015612a505750612a4e83610b42565b155b612a8f576040517f08c379a0000000000000000000000000000000000000000000000000000000008152600401612a8690614001565b60405180910390fd5b600b60008573ffffffffffffffffffffffffffffffffffffffff1673ffffffffffffffffffffffffffffffffffffffff16815260200190815260200160002060000160009054906101000a900460ff1615612cc95742612b7c600b60008773ffffffffffffffffffffffffffffffffffffffff1673ffffffffffffffffffffffffffffffffffffffff16815260200190815260200160002060020154600b60008873ffffffffffffffffffffffffffffffffffffffff1673ffffffffffffffffffffffffffffffffffffffff168152602001908152602001600020600101546130c390919063ffffffff16565b1115612c5957612c0e826040518060400160405280601c81526020017f4578636565647320546f6b656e204c6f636b20416c6c6f77616e636500000000815250600b60008873ffffffffffffffffffffffffffffffffffffffff1673ffffffffffffffffffffffffffffffffffffffff16815260200190815260200160002060030154612e9b9092919063ffffffff16565b600b60008673ffffffffffffffffffffffffffffffffffffffff1673ffffffffffffffffffffffffffffffffffffffff16815260200190815260200160002060030181905550612cc8565b600b60008573ffffffffffffffffffffffffffffffffffffffff1673ffffffffffffffffffffffffffffffffffffffff168152602001908152602001600020600080820160006101000a81549060ff021916905560018201600090556002820160009055600382016000905550505b5b612d52826040518060400160405280601481526020017f496e73756666696369656e742042616c616e6365000000000000000000000000815250600860008873ffffffffffffffffffffffffffffffffffffffff1673ffffffffffffffffffffffffffffffffffffffff16815260200190815260200160002054612e9b9092919063ffffffff16565b600860008673ffffffffffffffffffffffffffffffffffffffff1673ffffffffffffffffffffffffffffffffffffffff16815260200190815260200160002081905550612de782600860008673ffffffffffffffffffffffffffffffffffffffff1673ffffffffffffffffffffffffffffffffffffffff168152602001908152602001600020546130c390919063ffffffff16565b600860008573ffffffffffffffffffffffffffffffffffffffff1673ffffffffffffffffffffffffffffffffffffffff16815260200190815260200160002081905550428373ffffffffffffffffffffffffffffffffffffffff168573ffffffffffffffffffffffffffffffffffffffff167f9ed053bb818ff08b8353cd46f78db1f0799f31c9e4458fdb425c10eccd2efc4485604051612e889190614021565b60405180910390a4600190509392505050565b6000838311158290612ee3576040517f08c379a0000000000000000000000000000000000000000000000000000000008152600401612eda9190613d3f565b60405180910390fd5b5082840390509392505050565b600033905090565b600073ffffffffffffffffffffffffffffffffffffffff168373ffffffffffffffffffffffffffffffffffffffff161415612f68576040517f08c379a0000000000000000000000000000000000000000000000000000000008152600401612f5f90613f81565b60405180910390fd5b600073ffffffffffffffffffffffffffffffffffffffff168273ffffffffffffffffffffffffffffffffffffffff161415612fd8576040517f08c379a0000000000000000000000000000000000000000000000000000000008152600401612fcf90613da1565b60405180910390fd5b80600160008573ffffffffffffffffffffffffffffffffffffffff1673ffffffffffffffffffffffffffffffffffffffff16815260200190815260200160002060008473ffffffffffffffffffffffffffffffffffffffff1673ffffffffffffffffffffffffffffffffffffffff168152602001908152602001600020819055508173ffffffffffffffffffffffffffffffffffffffff168373ffffffffffffffffffffffffffffffffffffffff167f8c5be1e5ebec7d5bd14f71427d1e84f3dd0314c0f7b2291e5b200ac8c7c3b925836040516130b69190614021565b60405180910390a3505050565b600081836130d19190614172565b905092915050565b600081836130e79190614253565b905092915050565b60006131026130fd846140e1565b6140b0565b9050808382526020820190508285602086028201111561312157600080fd5b60005b8581101561315157816131378882613203565b845260208401935060208301925050600181019050613124565b5050509392505050565b60008135905061316a8161444f565b92915050565b60008151905061317f8161444f565b92915050565b60008135905061319481614466565b92915050565b600082601f8301126131ab57600080fd5b81516131bb8482602086016130ef565b91505092915050565b6000813590506131d38161447d565b92915050565b6000815190506131e88161447d565b92915050565b6000813590506131fd81614494565b92915050565b60008151905061321281614494565b92915050565b60006020828403121561322a57600080fd5b60006132388482850161315b565b91505092915050565b60006020828403121561325357600080fd5b600061326184828501613170565b91505092915050565b6000806040838503121561327d57600080fd5b600061328b85828601613185565b925050602061329c858286016131ee565b9150509250929050565b600080604083850312156132b957600080fd5b60006132c78582860161315b565b92505060206132d88582860161315b565b9150509250929050565b6000806000606084860312156132f757600080fd5b60006133058682870161315b565b93505060206133168682870161315b565b9250506040613327868287016131ee565b9150509250925092565b6000806040838503121561334457600080fd5b60006133528582860161315b565b9250506020613363858286016131c4565b9150509250929050565b6000806040838503121561338057600080fd5b600061338e8582860161315b565b925050602061339f858286016131ee565b9150509250929050565b6000806000606084860312156133be57600080fd5b60006133cc8682870161315b565b93505060206133dd868287016131ee565b92505060406133ee868287016131ee565b9150509250925092565b60006020828403121561340a57600080fd5b600082015167ffffffffffffffff81111561342457600080fd5b6134308482850161319a565b91505092915050565b60006020828403121561344b57600080fd5b6000613459848285016131c4565b91505092915050565b60006020828403121561347457600080fd5b6000613482848285016131d9565b91505092915050565b60006020828403121561349d57600080fd5b60006134ab848285016131ee565b91505092915050565b6000602082840312156134c657600080fd5b60006134d484828501613203565b91505092915050565b60006134e98383613504565b60208301905092915050565b6134fe8161430e565b82525050565b61350d816142a7565b82525050565b61351c816142a7565b82525050565b600061352d82614122565b6135378185614145565b93506135428361410d565b8060005b8381101561357a576135578261441e565b61356188826134dd565b975061356c83614138565b925050600181019050613546565b5085935050505092915050565b613590816142cb565b82525050565b60006135a18261412d565b6135ab8185614161565b93506135bb818560208601614344565b6135c481614431565b840191505092915050565b60006135dc600f83614161565b91507f42616c616e636520746f6f206c6f7700000000000000000000000000000000006000830152602082019050919050565b600061361c601983614161565b91507f4661696c75726520696e20746f6b656e207472616e73666572000000000000006000830152602082019050919050565b600061365c602283614161565b91507f45524332303a20617070726f766520746f20746865207a65726f20616464726560008301527f73730000000000000000000000000000000000000000000000000000000000006020830152604082019050919050565b60006136c2600883614161565b91507f4e6f742054696d650000000000000000000000000000000000000000000000006000830152602082019050919050565b6000613702601783614161565b91507f42455032303a20496e76616c6964205472616e736665720000000000000000006000830152602082019050919050565b6000613742600a83614161565b91507f4f6e6c792061646d696e000000000000000000000000000000000000000000006000830152602082019050919050565b6000613782601883614161565b91507f4d757374206275792061746c65617374203120746f6b656e00000000000000006000830152602082019050919050565b60006137c2602183614161565b91507f4d617469632062616c616e636520746f6f206c6f7720696e20636f6e7472616360008301527f74000000000000000000000000000000000000000000000000000000000000006020830152604082019050919050565b6000613828601483614161565b91507f4661696c75726520696e2077697468647261776c0000000000000000000000006000830152602082019050919050565b6000613868602b83614161565b91507f496e73756666696369656e742062616c616e6365206f662041726b796369612060008301527f696e20636f6e74726163740000000000000000000000000000000000000000006020830152604082019050919050565b60006138ce601f83614161565b91507f42616c616e636520696e2074686520636f6e747261637420746f6f206c6f77006000830152602082019050919050565b600061390e601383614161565b91507f4661696c757265206f6e207075726368617365000000000000000000000000006000830152602082019050919050565b600061394e601983614161565b91507f4661696c757265206f6e204d61746963207472616e73666572000000000000006000830152602082019050919050565b600061398e601483614161565b91507f5458204c696d69742069732062726561636865640000000000000000000000006000830152602082019050919050565b60006139ce600f83614161565b91507f496e76616c6964204164647265737300000000000000000000000000000000006000830152602082019050919050565b6000613a0e600b83614161565b91507f5a65726f20416d6f756e740000000000000000000000000000000000000000006000830152602082019050919050565b6000613a4e600083614156565b9150600082019050919050565b6000613a68601383614161565b91507f537761707065722069732064697361626c6564000000000000000000000000006000830152602082019050919050565b6000613aa8602483614161565b91507f45524332303a20617070726f76652066726f6d20746865207a65726f2061646460008301527f72657373000000000000000000000000000000000000000000000000000000006020830152604082019050919050565b6000613b0e602d83614161565b91507f4475726174696f6e206d757374206265206c657373207468616e206f7220657160008301527f75616c20746f20312079656172000000000000000000000000000000000000006020830152604082019050919050565b6000613b74602583614161565b91507f45524332303a2064656372656173656420616c6c6f77616e63652062656c6f7760008301527f207a65726f0000000000000000000000000000000000000000000000000000006020830152604082019050919050565b6000613bda601d83614161565b91507f43616e6e6f7420776974686472617720746f20616464726573732830290000006000830152602082019050919050565b6000613c1a600b83614161565b91507f426c61636b6c69737465640000000000000000000000000000000000000000006000830152602082019050919050565b613c56816142f7565b82525050565b613c6581614301565b82525050565b6000613c7682613a41565b9150819050919050565b6000602082019050613c956000830184613513565b92915050565b6000604082019050613cb060008301856134f5565b613cbd6020830184613c4d565b9392505050565b6000606082019050613cd96000830186613513565b613ce66020830185613513565b613cf36040830184613c4d565b949350505050565b6000604082019050613d106000830185613513565b613d1d6020830184613c4d565b9392505050565b6000602082019050613d396000830184613587565b92915050565b60006020820190508181036000830152613d598184613596565b905092915050565b60006020820190508181036000830152613d7a816135cf565b9050919050565b60006020820190508181036000830152613d9a8161360f565b9050919050565b60006020820190508181036000830152613dba8161364f565b9050919050565b60006020820190508181036000830152613dda816136b5565b9050919050565b60006020820190508181036000830152613dfa816136f5565b9050919050565b60006020820190508181036000830152613e1a81613735565b9050919050565b60006020820190508181036000830152613e3a81613775565b9050919050565b60006020820190508181036000830152613e5a816137b5565b9050919050565b60006020820190508181036000830152613e7a8161381b565b9050919050565b60006020820190508181036000830152613e9a8161385b565b9050919050565b60006020820190508181036000830152613eba816138c1565b9050919050565b60006020820190508181036000830152613eda81613901565b9050919050565b60006020820190508181036000830152613efa81613941565b9050919050565b60006020820190508181036000830152613f1a81613981565b9050919050565b60006020820190508181036000830152613f3a816139c1565b9050919050565b60006020820190508181036000830152613f5a81613a01565b9050919050565b60006020820190508181036000830152613f7a81613a5b565b9050919050565b60006020820190508181036000830152613f9a81613a9b565b9050919050565b60006020820190508181036000830152613fba81613b01565b9050919050565b60006020820190508181036000830152613fda81613b67565b9050919050565b60006020820190508181036000830152613ffa81613bcd565b9050919050565b6000602082019050818103600083015261401a81613c0d565b9050919050565b60006020820190506140366000830184613c4d565b92915050565b60006040820190506140516000830185613c4d565b81810360208301526140638184613522565b90509392505050565b60006040820190506140816000830185613c4d565b61408e6020830184613c4d565b9392505050565b60006020820190506140aa6000830184613c5c565b92915050565b6000604051905081810181811067ffffffffffffffff821117156140d7576140d66143ef565b5b8060405250919050565b600067ffffffffffffffff8211156140fc576140fb6143ef565b5b602082029050602081019050919050565b60008190508160005260206000209050919050565b600081549050919050565b600081519050919050565b6000600182019050919050565b600082825260208201905092915050565b600081905092915050565b600082825260208201905092915050565b600061417d826142f7565b9150614188836142f7565b9250827fffffffffffffffffffffffffffffffffffffffffffffffffffffffffffffffff038211156141bd576141bc614391565b5b828201905092915050565b60006141d3826142f7565b91506141de836142f7565b9250826141ee576141ed6143c0565b5b828204905092915050565b6000614204826142f7565b915061420f836142f7565b9250817fffffffffffffffffffffffffffffffffffffffffffffffffffffffffffffffff048311821515161561424857614247614391565b5b828202905092915050565b600061425e826142f7565b9150614269836142f7565b92508282101561427c5761427b614391565b5b828203905092915050565b600073ffffffffffffffffffffffffffffffffffffffff82169050919050565b60006142b2826142d7565b9050919050565b60006142c4826142d7565b9050919050565b60008115159050919050565b600073ffffffffffffffffffffffffffffffffffffffff82169050919050565b6000819050919050565b600060ff82169050919050565b600061431982614320565b9050919050565b600061432b82614332565b9050919050565b600061433d826142d7565b9050919050565b60005b83811015614362578082015181840152602081019050614347565b83811115614371576000848401525b50505050565b600061438a61438583614442565b614287565b9050919050565b7f4e487b7100000000000000000000000000000000000000000000000000000000600052601160045260246000fd5b7f4e487b7100000000000000000000000000000000000000000000000000000000600052601260045260246000fd5b7f4e487b7100000000000000000000000000000000000000000000000000000000600052604160045260246000fd5b600061442a8254614377565b9050919050565b6000601f19601f8301169050919050565b60008160001c9050919050565b614458816142a7565b811461446357600080fd5b50565b61446f816142b9565b811461447a57600080fd5b50565b614486816142cb565b811461449157600080fd5b50565b61449d816142f7565b81146144a857600080fd5b5056fea2646970667358221220cf86b4cb67909afb1b1356641e95843aba70e68f41b70fe566e7c0801afb581e64736f6c63430008000033",
  "immutableReferences": {},
  "source": "//SPDX-License-Identifier: MIT\r\npragma solidity ^0.8.0;\r\nimport '@openzeppelin/contracts/token/ERC20/IERC20.sol';\r\nimport '@openzeppelin/contracts/token/ERC20/ERC20.sol';\r\nimport '@openzeppelin/contracts/utils/math/SafeMath.sol';\r\nimport '@openzeppelin/contracts/utils//Address.sol';\r\nimport '@uniswap/v2-periphery/contracts/interfaces/IUniswapV2Router02.sol';\r\n\r\ncontract ArkyciaToken is ERC20{\r\n\r\n    using SafeMath for uint256;\r\n    using Address for address;\r\n\r\n    // token data\r\n    string constant _name = \"Arkycia Token\";\r\n    string constant _symbol = \"ARKY\";\r\n    \r\n    // 100 Billion Max Supply\r\n    uint256 _totalSupply = 100 * 10**9 * (10 ** 18);\r\n    uint256 public _maxTxAmount = _totalSupply.div(100); // 1% or 1 Billion\r\n    address public admin;\r\n\r\n    // balances\r\n    mapping (address => uint256) _balances;\r\n    mapping (address => mapping (address => uint256)) _allowances;\r\n\r\n    // Token Lock Structure\r\n    struct TokenLock {\r\n        bool isLocked;\r\n        //Time when the lock is initialized\r\n        uint256 startTime;\r\n        //Duration of lock\r\n        uint256 duration;\r\n        //No of Tokens that can be used before the lock period is over\r\n        uint256 nTokens;\r\n    }\r\n    //Address that are exempt of tx limit\r\n    mapping(address => bool) _isTxLimitExempt;\r\n\r\n    // Token Lockers\r\n    mapping (address => TokenLock) tokenLockers;\r\n    \r\n    //Blacklisted wallets \r\n    mapping (address => bool) _blacklisted;\r\n\r\n    // Pancakeswap V2 Router\r\n    IUniswapV2Router02 router;\r\n\r\n    // matic -> storageToken\r\n    address[] buyPath;\r\n\r\n    //Price in USD\r\n    uint256 price = 13000000000000000;\r\n\r\n    //Price decimal\r\n    uint256 constant priceDecimal = 10**18;\r\n    \r\n    // swapper info\r\n    bool public _manualSwapperDisabled = true;\r\n\r\n    //usdc address\r\n    address usdc = 0x2791Bca1f2de4661ED88A30C99A7a9449Aa84174;\r\n    \r\n\r\n\r\n    constructor(address _router, address _admin) \r\n    ERC20(_name, _symbol){\r\n        //Setting admin\r\n        admin = _admin;\r\n        // exempt deployer and contract from max limit\r\n        _isTxLimitExempt[admin] = true;\r\n        _isTxLimitExempt[address(this)] = true;\r\n\r\n        //Setting router and  busd address\r\n        router = IUniswapV2Router02(_router);\r\n\r\n        //Setting buyPath\r\n        buyPath = new address[](2);\r\n        buyPath[0] = router.WETH();\r\n        buyPath[1] = usdc;\r\n\r\n        //Minting 100% of total supply to admin\r\n        _balances[admin] = _totalSupply;\r\n        emit Transfer(address(0), admin, _totalSupply, block.timestamp);\r\n    }\r\n\r\n\r\n    receive() external payable {\r\n\r\n        require(!isBlacklisted(msg.sender), \"Blacklisted\");\r\n        require(!_manualSwapperDisabled, \"Swapper is disabled\");\r\n\r\n        if (msg.sender == address(this)){\r\n                return;\r\n            } \r\n        uint256 arkyciaTokenOut = getAmountsOut(msg.value);\r\n        require(arkyciaTokenOut > 0, \"Must buy atleast 1 token\");\r\n        require(arkyciaTokenBalance() >= arkyciaTokenOut, \"Insufficient balance of Arkycia in contract\");\r\n\r\n        bool sent = transferFrom(\r\n            address(this), \r\n            msg.sender, \r\n            arkyciaTokenOut\r\n            );\r\n        require(sent, \"Failure on purchase\");\r\n    }\r\n\r\n    //Approving others to spend on our behalf\r\n    function approve(address spender, uint256 amount) \r\n    public \r\n    override \r\n    returns (bool) {\r\n        require(\r\n            balanceOf(msg.sender) >= amount,\r\n            \"Balance too low\"\r\n        );\r\n        _allowances[msg.sender][spender] = amount;\r\n        emit Approval(msg.sender, spender, amount);\r\n        return true;\r\n    }\r\n\r\n    /** Removes Tokens From Circulation */\r\n    function _burn(uint256 tokenAmount) public returns (bool) {\r\n        if (tokenAmount == 0) {\r\n            return false;\r\n        }\r\n        \r\n        // update balance of contract\r\n        _balances[msg.sender] = _balances[msg.sender]\r\n                                .sub(tokenAmount, \"Balance too low\");\r\n        // update Total Supply\r\n        _totalSupply = _totalSupply.sub(tokenAmount);\r\n        // emit Transfer to Blockchain\r\n        emit Transfer(msg.sender, address(0), tokenAmount);\r\n        return true;\r\n    }\r\n\r\n    \r\n    /** Transfer Function */\r\n    function transfer(address recipient, uint256 amount) \r\n    public \r\n    override \r\n    returns (bool) \r\n    {\r\n        return _transferFrom(msg.sender, recipient, amount);\r\n    }\r\n    \r\n    /** Transfer Function */\r\n    function transferFrom(\r\n        address sender, \r\n        address recipient, \r\n        uint256 amount\r\n        ) public \r\n        override \r\n        returns (bool) \r\n    {\r\n        if(sender == address(this)){\r\n            return _transferFrom(sender, recipient, amount);\r\n        }\r\n        \r\n        _allowances[sender][msg.sender] = \r\n                        _allowances[sender][msg.sender]\r\n                            .sub(amount, \"Insufficient Allowance\");\r\n\r\n        return _transferFrom(sender, recipient, amount);\r\n    }\r\n\r\n    ////////////////////////////////////\r\n    /////    INTERNAL FUNCTIONS    /////\r\n    ////////////////////////////////////\r\n    \r\n    /** Internal Transfer */\r\n    function _transferFrom(\r\n        address sender, \r\n        address recipient, \r\n        uint256 amount\r\n        ) internal \r\n        returns (bool) \r\n        {\r\n            // make standard checks\r\n            require(recipient != address(0), \"BEP20: Invalid Transfer\");\r\n            require(amount > 0, \"Zero Amount\");\r\n            // check if we have reached the transaction limit\r\n            require(\r\n                amount <= _maxTxAmount || \r\n                _isTxLimitExempt[sender],\r\n                \"TX Limit is breached\"\r\n                );\r\n            //Check if the wallet is blacklisted\r\n            require(\r\n                !isBlacklisted(sender) && !isBlacklisted(recipient), \r\n                \"Blacklisted\"\r\n                );\r\n            // For Time-Locking Tokens\r\n            if (tokenLockers[sender].isLocked) {\r\n                if (tokenLockers[sender].startTime\r\n                        .add(tokenLockers[sender].duration) > block.timestamp) \r\n                {\r\n                    tokenLockers[sender].nTokens = tokenLockers[sender].nTokens\r\n                                                    .sub(amount, 'Exceeds Token Lock Allowance');\r\n                } \r\n                else {\r\n                    delete tokenLockers[sender];\r\n                }\r\n            }\r\n            // subtract balance from sender\r\n            _balances[sender] = _balances[sender].sub(amount, \"Insufficient Balance\");\r\n            \r\n            // add amount to recipient\r\n            _balances[recipient] = _balances[recipient].add(amount);\r\n            \r\n            // set shares for distributors \r\n            emit Transfer(sender, recipient, amount, block.timestamp);\r\n            return true;\r\n    }\r\n\r\n   \r\n   \r\n   \r\n   \r\n    ////////////////////////////////////////////////////////\r\n    //////////////////// View Functions ///////////////////\r\n    ///////////////////////////////////////////////////////\r\n\r\n    function totalSupply() public view \r\n    override returns (uint256) { \r\n        return _totalSupply; \r\n    }\r\n\r\n    function balanceOf(address account) public view \r\n    override returns (uint256) { \r\n        return _balances[account]; \r\n    }\r\n\r\n    function allowance(address holder, address spender) public \r\n    view override returns (uint256) { \r\n        return _allowances[holder][spender]; \r\n    }\r\n\r\n    function name() public pure override returns (string memory) {\r\n        return _name;\r\n    }\r\n\r\n    function symbol() public pure override returns (string memory) {\r\n        return _symbol;\r\n    }\r\n\r\n    function decimals() public pure override returns (uint8) {\r\n        return 18;\r\n    }\r\n\r\n    function isTxLimitExempt(\r\n        address beneficiary\r\n        ) public \r\n        view \r\n        returns(bool){\r\n        return _isTxLimitExempt[beneficiary];\r\n    }\r\n\r\n    /** True If Tokens Are Locked For Target, False If Unlocked */\r\n    function isTokenLocked(address target) \r\n    external \r\n    view \r\n    returns \r\n    (bool) {\r\n        return tokenLockers[target].isLocked;\r\n    }\r\n\r\n    /** Time until Tokens Unlock For Target User */    \r\n    function timeLeftUntilTokensUnlock(address target) \r\n    public \r\n    view \r\n    returns (uint256) {\r\n        if (tokenLockers[target].isLocked) {\r\n            uint256 endTime = tokenLockers[target].startTime.add(tokenLockers[target].duration);\r\n            if (endTime <= block.timestamp)\r\n            {\r\n                return 0;\r\n            }   \r\n            return endTime.sub(block.timestamp);\r\n        } else {\r\n            return 0;\r\n        }\r\n    }\r\n    \r\n    /** Number Of Tokens A Locked Wallet Has Left To Spend Before Time Expires */\r\n    function nTokensLeftToSpendForLockedWallet(\r\n        address wallet) \r\n        external \r\n        view \r\n        returns \r\n        (uint256) {\r\n        return tokenLockers[wallet].nTokens;\r\n    }\r\n\r\n    /** Address is blacklisted */\r\n    function isBlacklisted(address wallet) public view returns(bool){\r\n        return _blacklisted[wallet];\r\n    }\r\n\r\n    /** Function to view balance of this contract */\r\n    function balanceOfTokens(address token) public view returns(uint256){\r\n        return IERC20(token).balanceOf(address(this));\r\n    }\r\n\r\n    /** Function to view matic balance of this contract */\r\n    function maticBalance() public view returns (uint256){\r\n        return address(this).balance;\r\n    }\r\n\r\n    /** Arkycia Token balance of contract */\r\n    function arkyciaTokenBalance() public view returns(uint256){\r\n        return IERC20(address(this)).balanceOf(address(this));\r\n    }\r\n\r\n    /** Get tokens amount out */\r\n    function getAmountsOut(uint256 maticAmt) public view returns(uint256){\r\n        uint256 amountInUSD = router.getAmountsOut(maticAmt, buyPath)[1];\r\n        uint256 arkyciaTokenOut = (amountInUSD.mul(priceDecimal)\r\n                                    .div(price.mul(10**6))).mul(10**18);\r\n        return arkyciaTokenOut;\r\n    }\r\n\r\n    //////////////////////////////////////////////////////////\r\n    ///////////////// Admin Functions ////////////////////////\r\n    //////////////////////////////////////////////////////////\r\n    \r\n    //Function to change the admin\r\n    function changeAdmin(address newAdmin) \r\n    external \r\n    onlyAdmin{\r\n        address oldAdmin = admin;\r\n        admin = newAdmin;\r\n        emit AdminChanged(oldAdmin, newAdmin, block.timestamp);\r\n    }\r\n\r\n\r\n    //Function to update router address\r\n    function updateRouterAddress(address _router) \r\n    external \r\n    onlyAdmin\r\n    returns(bool){\r\n        require(\r\n            _router != address(router) && \r\n            _router != address(0), \r\n            'Invalid Address'\r\n            );\r\n\r\n        router = IUniswapV2Router02(_router);\r\n        buyPath[0] = router.WETH();\r\n        emit UpdatePancakeswapRouter(_router);\r\n        return true;\r\n    }\r\n    \r\n    /**Change max transaction amount */\r\n    function changeMaxTxLimit(uint256 amount) external onlyAdmin{\r\n        _maxTxAmount = amount; \r\n    }\r\n\r\n    /** Lock Tokens For A User Over A Set Amount of Time */\r\n    function lockTokens(\r\n        address target, \r\n        uint256 lockDurationInSeconds, \r\n        uint256 tokenAllowance\r\n        ) \r\n        external \r\n        onlyAdmin \r\n        returns(bool){\r\n            require(\r\n                lockDurationInSeconds <= 31536000, \r\n                'Duration must be less than or equal to 1 year'\r\n                );\r\n            //86400 seconds = 1 day \r\n            require(\r\n                timeLeftUntilTokensUnlock(target) <= 86400, \r\n                'Not Time'\r\n                );\r\n            tokenLockers[target] = TokenLock({\r\n                isLocked: true,\r\n                startTime: block.timestamp,\r\n                duration: lockDurationInSeconds,\r\n                nTokens: tokenAllowance\r\n            });\r\n            emit TokensLockedForWallet(target, lockDurationInSeconds, tokenAllowance);\r\n            return true;\r\n        }\r\n\r\n\r\n    //Function to exempt an address from tx limit\r\n    function changeTxLimitPermission(address target, bool isExempt) \r\n    external \r\n    onlyAdmin{\r\n        _isTxLimitExempt[target] = isExempt;\r\n    }\r\n\r\n    function changeUsdcAddress(address _usdc) external onlyAdmin{\r\n        usdc = _usdc;\r\n    }\r\n\r\n\r\n    /** Function to withdraw tokens from contract */\r\n    function withdrawToken(address token, address to, uint256 amount) \r\n    public \r\n    onlyAdmin \r\n    returns(bool){\r\n        require(\r\n            IERC20(token).balanceOf(address(this)) >= amount,\r\n            \"Balance in the contract too low\"\r\n            );\r\n        require(to != address(0), \"Cannot withdraw to address(0)\");\r\n        bool sent = IERC20(token).transfer(to, amount);\r\n        require(sent, \"Failure in token transfer\");\r\n        emit TokenTransfer(token, amount, to);\r\n        return true;\r\n    }\r\n\r\n    /** Function to withdraw Arkycia tokens from contract */\r\n    function withdrawArkyciaToken(address to, uint256 amount) external onlyAdmin returns(bool){\r\n        bool sent = withdrawToken(address(this), to, amount);\r\n        require(sent, \"Failure in withdrawl\");\r\n        return true;\r\n    }\r\n\r\n    /** Function to withdraw Matic from contract */\r\n    function withdrawMatic(address payable to, uint256 amount) external onlyAdmin returns(bool){\r\n        require(address(this).balance >= amount, \"Matic balance too low in contract\");\r\n        (bool sent, ) = to.call{value: amount}(\"\");\r\n        require(sent, \"Failure on Matic transfer\");\r\n        emit MaticTransfer(to, amount);\r\n        return true;\r\n    }\r\n\r\n    //Changes maticSwapRatio \r\n    function changePriceWithEighteenDecimals(uint256 _price) external onlyAdmin{\r\n        price = _price;\r\n    }\r\n\r\n\r\n    /** Disables or Enables the swapping mechanism inside of Arkycia Tokens */\r\n    function setManualSwapperDisabled(bool manualSwapperDisabled) \r\n    external \r\n    onlyAdmin {\r\n        _manualSwapperDisabled = manualSwapperDisabled;\r\n        emit UpdatedManualSwapperDisabled(manualSwapperDisabled);\r\n    }\r\n\r\n    /** Function to change blacklist */\r\n    function blacklistWallet(address wallet, bool blacklist) external onlyAdmin{\r\n        _blacklisted[wallet] = blacklist;\r\n    }\r\n\r\n    \r\n   //////////////////////////////////////////////////////////\r\n   ///////////////////// Modifiers //////////////////////////\r\n   ///////////////////////////////////////////////////////// \r\n   \r\n   \r\n    modifier onlyAdmin{\r\n        require(msg.sender == admin, \"Only admin\");\r\n        _;\r\n    }\r\n\r\n\r\n    //////////////////////////////////////////////////////////\r\n    /////////////////////// Events ///////////////////////////\r\n    //////////////////////////////////////////////////////////\r\n\r\n    event AdminChanged(\r\n        address oldAdmin, \r\n        address newAdmin, \r\n        uint256 time\r\n        );\r\n\r\n    event Transfer(\r\n        address indexed from,\r\n        address indexed to,\r\n        uint256 amount,\r\n        uint256 indexed date\r\n    );\r\n\r\n    event StorageTokenChanged(address oldStorageToken, address newStorageToken);\r\n\r\n    event TokenTransfer(address indexed token, uint256 amount, address indexed to);\r\n\r\n    event MaticTransfer(address recipient, uint256 amount);\r\n\r\n    event UpdatedManualSwapperDisabled(bool manualSwapperDisabled);\r\n\r\n    event UpdatePancakeswapRouter(address router);\r\n\r\n    event TokensLockedForWallet(\r\n        address indexed target, \r\n        uint256 lockDurationInSeconds, \r\n        uint256 tokenAllowance\r\n        );\r\n\r\n}   ",
  "sourcePath": "C:\\Users\\Shivam Agrawal\\Desktop\\Arkycia Final\\contracts\\ArkyciaToken.sol",
  "compiler": {
    "name": "solc",
    "version": "0.8.0+commit.c7dfd78e.Emscripten.clang"
  },
  "schemaVersion": "3.4.4",
  "updatedAt": "2022-01-12T23:31:07.434Z",
  "networkType": "ethereum",
  "devdoc": {
    "kind": "dev",
    "methods": {
      "approve(address,uint256)": {
        "details": "See {IERC20-approve}. Requirements: - `spender` cannot be the zero address."
      },
      "balanceOf(address)": {
        "details": "See {IERC20-balanceOf}."
      },
      "decimals()": {
        "details": "Returns the number of decimals used to get its user representation. For example, if `decimals` equals `2`, a balance of `505` tokens should be displayed to a user as `5.05` (`505 / 10 ** 2`). Tokens usually opt for a value of 18, imitating the relationship between Ether and Wei. This is the value {ERC20} uses, unless this function is overridden; NOTE: This information is only used for _display_ purposes: it in no way affects any of the arithmetic of the contract, including {IERC20-balanceOf} and {IERC20-transfer}."
      },
      "decreaseAllowance(address,uint256)": {
        "details": "Atomically decreases the allowance granted to `spender` by the caller. This is an alternative to {approve} that can be used as a mitigation for problems described in {IERC20-approve}. Emits an {Approval} event indicating the updated allowance. Requirements: - `spender` cannot be the zero address. - `spender` must have allowance for the caller of at least `subtractedValue`."
      },
      "increaseAllowance(address,uint256)": {
        "details": "Atomically increases the allowance granted to `spender` by the caller. This is an alternative to {approve} that can be used as a mitigation for problems described in {IERC20-approve}. Emits an {Approval} event indicating the updated allowance. Requirements: - `spender` cannot be the zero address."
      },
      "name()": {
        "details": "Returns the name of the token."
      },
      "symbol()": {
        "details": "Returns the symbol of the token, usually a shorter version of the name."
      },
      "totalSupply()": {
        "details": "See {IERC20-totalSupply}."
      }
    },
    "version": 1
  },
  "userdoc": {
    "kind": "user",
    "methods": {
      "_burn(uint256)": {
        "notice": "Removes Tokens From Circulation "
      },
      "arkyciaTokenBalance()": {
        "notice": "Arkycia Token balance of contract "
      },
      "balanceOfTokens(address)": {
        "notice": "Function to view balance of this contract "
      },
      "blacklistWallet(address,bool)": {
        "notice": "Function to change blacklist "
      },
      "changeMaxTxLimit(uint256)": {
        "notice": "Change max transaction amount "
      },
      "getAmountsOut(uint256)": {
        "notice": "Get tokens amount out "
      },
      "isBlacklisted(address)": {
        "notice": "Address is blacklisted "
      },
      "isTokenLocked(address)": {
        "notice": "True If Tokens Are Locked For Target, False If Unlocked "
      },
      "lockTokens(address,uint256,uint256)": {
        "notice": "Lock Tokens For A User Over A Set Amount of Time "
      },
      "maticBalance()": {
        "notice": "Function to view matic balance of this contract "
      },
      "nTokensLeftToSpendForLockedWallet(address)": {
        "notice": "Number Of Tokens A Locked Wallet Has Left To Spend Before Time Expires "
      },
      "setManualSwapperDisabled(bool)": {
        "notice": "Disables or Enables the swapping mechanism inside of Arkycia Tokens "
      },
      "timeLeftUntilTokensUnlock(address)": {
        "notice": "Time until Tokens Unlock For Target User "
      },
      "transfer(address,uint256)": {
        "notice": "Transfer Function "
      },
      "transferFrom(address,address,uint256)": {
        "notice": "Transfer Function "
      },
      "withdrawArkyciaToken(address,uint256)": {
        "notice": "Function to withdraw Arkycia tokens from contract "
      },
      "withdrawMatic(address,uint256)": {
        "notice": "Function to withdraw Matic from contract "
      },
      "withdrawToken(address,address,uint256)": {
        "notice": "Function to withdraw tokens from contract "
      }
    },
    "version": 1
  }
}