{
  "contractName": "ArkyciaPresaleContract",
  "abi": [
    {
      "inputs": [
        {
          "internalType": "address",
          "name": "_admin",
          "type": "address"
        },
        {
          "internalType": "address",
          "name": "_arkycia",
          "type": "address"
        }
      ],
      "stateMutability": "nonpayable",
      "type": "constructor"
    },
    {
      "inputs": [],
      "name": "admin",
      "outputs": [
        {
          "internalType": "address",
          "name": "",
          "type": "address"
        }
      ],
      "stateMutability": "view",
      "type": "function",
      "constant": true
    },
    {
      "inputs": [],
      "name": "arkycia",
      "outputs": [
        {
          "internalType": "address",
          "name": "",
          "type": "address"
        }
      ],
      "stateMutability": "view",
      "type": "function",
      "constant": true
    },
    {
      "inputs": [],
      "name": "manualSwapperDisabled",
      "outputs": [
        {
          "internalType": "bool",
          "name": "",
          "type": "bool"
        }
      ],
      "stateMutability": "view",
      "type": "function",
      "constant": true
    },
    {
      "stateMutability": "payable",
      "type": "receive",
      "payable": true
    },
    {
      "inputs": [
        {
          "internalType": "uint256",
          "name": "maticAmt",
          "type": "uint256"
        }
      ],
      "name": "getAmountsOut",
      "outputs": [
        {
          "internalType": "uint256",
          "name": "",
          "type": "uint256"
        }
      ],
      "stateMutability": "view",
      "type": "function",
      "constant": true
    },
    {
      "inputs": [
        {
          "internalType": "address",
          "name": "user",
          "type": "address"
        }
      ],
      "name": "isBlacklisted",
      "outputs": [
        {
          "internalType": "bool",
          "name": "",
          "type": "bool"
        }
      ],
      "stateMutability": "view",
      "type": "function",
      "constant": true
    },
    {
      "inputs": [
        {
          "internalType": "address",
          "name": "user",
          "type": "address"
        },
        {
          "internalType": "bool",
          "name": "blacklist",
          "type": "bool"
        }
      ],
      "name": "setBlacklist",
      "outputs": [],
      "stateMutability": "nonpayable",
      "type": "function"
    },
    {
      "inputs": [
        {
          "internalType": "uint256",
          "name": "_price",
          "type": "uint256"
        }
      ],
      "name": "changePriceWithEighteenDecimals",
      "outputs": [],
      "stateMutability": "nonpayable",
      "type": "function"
    },
    {
      "inputs": [
        {
          "internalType": "address",
          "name": "token",
          "type": "address"
        }
      ],
      "name": "getTokenBalance",
      "outputs": [
        {
          "internalType": "uint256",
          "name": "",
          "type": "uint256"
        }
      ],
      "stateMutability": "view",
      "type": "function",
      "constant": true
    },
    {
      "inputs": [],
      "name": "getArkyciaTokenBalance",
      "outputs": [
        {
          "internalType": "uint256",
          "name": "",
          "type": "uint256"
        }
      ],
      "stateMutability": "view",
      "type": "function",
      "constant": true
    },
    {
      "inputs": [],
      "name": "getMaticBalance",
      "outputs": [
        {
          "internalType": "uint256",
          "name": "",
          "type": "uint256"
        }
      ],
      "stateMutability": "view",
      "type": "function",
      "constant": true
    },
    {
      "inputs": [
        {
          "internalType": "address",
          "name": "_router",
          "type": "address"
        }
      ],
      "name": "updateRouter",
      "outputs": [],
      "stateMutability": "nonpayable",
      "type": "function"
    },
    {
      "inputs": [
        {
          "internalType": "address",
          "name": "token",
          "type": "address"
        },
        {
          "internalType": "address",
          "name": "to",
          "type": "address"
        },
        {
          "internalType": "uint256",
          "name": "amount",
          "type": "uint256"
        }
      ],
      "name": "withdrawTokens",
      "outputs": [],
      "stateMutability": "nonpayable",
      "type": "function"
    },
    {
      "inputs": [
        {
          "internalType": "address",
          "name": "to",
          "type": "address"
        },
        {
          "internalType": "uint256",
          "name": "amount",
          "type": "uint256"
        }
      ],
      "name": "withdrawArkyciaTokens",
      "outputs": [],
      "stateMutability": "nonpayable",
      "type": "function"
    },
    {
      "inputs": [
        {
          "internalType": "address payable",
          "name": "to",
          "type": "address"
        },
        {
          "internalType": "uint256",
          "name": "amount",
          "type": "uint256"
        }
      ],
      "name": "withdrawMatic",
      "outputs": [],
      "stateMutability": "nonpayable",
      "type": "function"
    },
    {
      "inputs": [
        {
          "internalType": "address",
          "name": "_admin",
          "type": "address"
        }
      ],
      "name": "changeAdmin",
      "outputs": [],
      "stateMutability": "nonpayable",
      "type": "function"
    },
    {
      "inputs": [
        {
          "internalType": "bool",
          "name": "disabled",
          "type": "bool"
        }
      ],
      "name": "setManualSwapperDisabled",
      "outputs": [],
      "stateMutability": "nonpayable",
      "type": "function"
    }
  ],
  "bytecode": "0x608060405260016000806101000a81548160ff021916908315150217905550662e2f6e5e14800060015573a5e0829caced8ffdd4de3c43696c57f7d7a678ff600260006101000a81548173ffffffffffffffffffffffffffffffffffffffff021916908373ffffffffffffffffffffffffffffffffffffffff1602179055503480156200008b57600080fd5b5060405162002662380380620026628339818101604052810190620000b1919062000477565b81600060016101000a81548173ffffffffffffffffffffffffffffffffffffffff021916908373ffffffffffffffffffffffffffffffffffffffff16021790555080600460006101000a81548173ffffffffffffffffffffffffffffffffffffffff021916908373ffffffffffffffffffffffffffffffffffffffff160217905550600267ffffffffffffffff81111562000175577f4e487b7100000000000000000000000000000000000000000000000000000000600052604160045260246000fd5b604051908082528060200260200182016040528015620001a45781602001602082028036833780820191505090505b5060039080519060200190620001bc92919062000386565b50600260009054906101000a900473ffffffffffffffffffffffffffffffffffffffff1673ffffffffffffffffffffffffffffffffffffffff1663ad5c46486040518163ffffffff1660e01b815260040160206040518083038186803b1580156200022657600080fd5b505afa1580156200023b573d6000803e3d6000fd5b505050506040513d601f19601f820116820180604052508101906200026191906200044b565b60036000815481106200029d577f4e487b7100000000000000000000000000000000000000000000000000000000600052603260045260246000fd5b9060005260206000200160006101000a81548173ffffffffffffffffffffffffffffffffffffffff021916908373ffffffffffffffffffffffffffffffffffffffff160217905550732791bca1f2de4661ed88a30c99a7a9449aa84174600360018154811062000336577f4e487b7100000000000000000000000000000000000000000000000000000000600052603260045260246000fd5b9060005260206000200160006101000a81548173ffffffffffffffffffffffffffffffffffffffff021916908373ffffffffffffffffffffffffffffffffffffffff160217905550505062000506565b82805482825590600052602060002090810192821562000402579160200282015b82811115620004015782518260006101000a81548173ffffffffffffffffffffffffffffffffffffffff021916908373ffffffffffffffffffffffffffffffffffffffff16021790555091602001919060010190620003a7565b5b50905062000411919062000415565b5090565b5b808211156200043057600081600090555060010162000416565b5090565b6000815190506200044581620004ec565b92915050565b6000602082840312156200045e57600080fd5b60006200046e8482850162000434565b91505092915050565b600080604083850312156200048b57600080fd5b60006200049b8582860162000434565b9250506020620004ae8582860162000434565b9150509250929050565b6000620004c582620004cc565b9050919050565b600073ffffffffffffffffffffffffffffffffffffffff82169050919050565b620004f781620004b8565b81146200050357600080fd5b50565b61214c80620005166000396000f3fe6080604052600436106100f75760003560e01c8063c1153aaa1161008a578063f851a44011610059578063f851a44014610622578063f8edf1fb1461064d578063fd0b6f2a14610676578063fe575a87146106a157610403565b8063c1153aaa1461056a578063c851cc32146105a7578063cd9368aa146105d0578063d43ee6b2146105f957610403565b8063231299ff116100c6578063231299ff146104b05780633aecd0e3146104db5780635e35359e146105185780638f2839701461054157610403565b806310ded16514610408578063153b0d1e146104335780631c0fea271461045c5780632266bc891461048757610403565b3661040357610105336106de565b15610145576040517f08c379a000000000000000000000000000000000000000000000000000000000815260040161013c90611dcc565b60405180910390fd5b60008054906101000a900460ff1615610193576040517f08c379a000000000000000000000000000000000000000000000000000000000815260040161018a90611d8c565b60405180910390fd5b3073ffffffffffffffffffffffffffffffffffffffff163373ffffffffffffffffffffffffffffffffffffffff1614156101cc57610401565b60006101d734610734565b90506000811161021c576040517f08c379a000000000000000000000000000000000000000000000000000000000815260040161021390611d0c565b60405180910390fd5b80600460009054906101000a900473ffffffffffffffffffffffffffffffffffffffff1673ffffffffffffffffffffffffffffffffffffffff166370a08231306040518263ffffffff1660e01b81526004016102789190611c36565b60206040518083038186803b15801561029057600080fd5b505afa1580156102a4573d6000803e3d6000fd5b505050506040513d601f19601f820116820180604052508101906102c891906118bf565b1015610309576040517f08c379a000000000000000000000000000000000000000000000000000000000815260040161030090611d2c565b60405180910390fd5b6000600460009054906101000a900473ffffffffffffffffffffffffffffffffffffffff1673ffffffffffffffffffffffffffffffffffffffff166323b872dd3033856040518463ffffffff1660e01b815260040161036a93929190611c51565b602060405180830381600087803b15801561038457600080fd5b505af1158015610398573d6000803e3d6000fd5b505050506040513d601f19601f820116820180604052508101906103bc919061186d565b9050806103fe576040517f08c379a00000000000000000000000000000000000000000000000000000000081526004016103f590611d6c565b60405180910390fd5b50505b005b600080fd5b34801561041457600080fd5b5061041d610899565b60405161042a9190611dec565b60405180910390f35b34801561043f57600080fd5b5061045a6004803603810190610455919061178b565b6108a1565b005b34801561046857600080fd5b5061047161098c565b60405161047e9190611dec565b60405180910390f35b34801561049357600080fd5b506104ae60048036038101906104a99190611844565b6109be565b005b3480156104bc57600080fd5b506104c5610a6a565b6040516104d29190611c36565b60405180910390f35b3480156104e757600080fd5b5061050260048036038101906104fd91906116ae565b610a90565b60405161050f9190611dec565b60405180910390f35b34801561052457600080fd5b5061053f600480360381019061053a919061173c565b610b22565b005b34801561054d57600080fd5b50610568600480360381019061056391906116ae565b610d54565b005b34801561057657600080fd5b50610591600480360381019061058c9190611896565b610734565b60405161059e9190611dec565b60405180910390f35b3480156105b357600080fd5b506105ce60048036038101906105c991906116ae565b610e28565b005b3480156105dc57600080fd5b506105f760048036038101906105f29190611700565b61108f565b005b34801561060557600080fd5b50610620600480360381019061061b91906117c7565b611213565b005b34801561062e57600080fd5b50610637611488565b6040516106449190611c36565b60405180910390f35b34801561065957600080fd5b50610674600480360381019061066f9190611896565b6114ae565b005b34801561068257600080fd5b5061068b611548565b6040516106989190611cb1565b60405180910390f35b3480156106ad57600080fd5b506106c860048036038101906106c391906116ae565b6106de565b6040516106d59190611cb1565b60405180910390f35b6000600560008373ffffffffffffffffffffffffffffffffffffffff1673ffffffffffffffffffffffffffffffffffffffff16815260200190815260200160002060009054906101000a900460ff169050919050565b600080600260009054906101000a900473ffffffffffffffffffffffffffffffffffffffff1673ffffffffffffffffffffffffffffffffffffffff1663d06ca61f8460036040518363ffffffff1660e01b8152600401610795929190611e07565b60006040518083038186803b1580156107ad57600080fd5b505afa1580156107c1573d6000803e3d6000fd5b505050506040513d6000823e3d601f19601f820116820180604052508101906107ea9190611803565b600181518110610823577f4e487b7100000000000000000000000000000000000000000000000000000000600052603260045260246000fd5b60200260200101519050600061088d670de0b6b3a764000061087f610856620f424060015461155990919063ffffffff16565b610871670de0b6b3a76400008761155990919063ffffffff16565b61156f90919063ffffffff16565b61155990919063ffffffff16565b90508092505050919050565b600047905090565b600060019054906101000a900473ffffffffffffffffffffffffffffffffffffffff1673ffffffffffffffffffffffffffffffffffffffff163373ffffffffffffffffffffffffffffffffffffffff1614610931576040517f08c379a000000000000000000000000000000000000000000000000000000000815260040161092890611dac565b60405180910390fd5b80600560008473ffffffffffffffffffffffffffffffffffffffff1673ffffffffffffffffffffffffffffffffffffffff16815260200190815260200160002060006101000a81548160ff0219169083151502179055505050565b60006109b9600460009054906101000a900473ffffffffffffffffffffffffffffffffffffffff16610a90565b905090565b600060019054906101000a900473ffffffffffffffffffffffffffffffffffffffff1673ffffffffffffffffffffffffffffffffffffffff163373ffffffffffffffffffffffffffffffffffffffff1614610a4e576040517f08c379a0000000000000000000000000000000000000000000000000000000008152600401610a4590611dac565b60405180910390fd5b806000806101000a81548160ff02191690831515021790555050565b600460009054906101000a900473ffffffffffffffffffffffffffffffffffffffff1681565b60008173ffffffffffffffffffffffffffffffffffffffff166370a08231306040518263ffffffff1660e01b8152600401610acb9190611c36565b60206040518083038186803b158015610ae357600080fd5b505afa158015610af7573d6000803e3d6000fd5b505050506040513d601f19601f82011682018060405250810190610b1b91906118bf565b9050919050565b600060019054906101000a900473ffffffffffffffffffffffffffffffffffffffff1673ffffffffffffffffffffffffffffffffffffffff163373ffffffffffffffffffffffffffffffffffffffff1614610bb2576040517f08c379a0000000000000000000000000000000000000000000000000000000008152600401610ba990611dac565b60405180910390fd5b808373ffffffffffffffffffffffffffffffffffffffff166370a08231306040518263ffffffff1660e01b8152600401610bec9190611c36565b60206040518083038186803b158015610c0457600080fd5b505afa158015610c18573d6000803e3d6000fd5b505050506040513d601f19601f82011682018060405250810190610c3c91906118bf565b1115610c7d576040517f08c379a0000000000000000000000000000000000000000000000000000000008152600401610c7490611ccc565b60405180910390fd5b60008373ffffffffffffffffffffffffffffffffffffffff1663a9059cbb84846040518363ffffffff1660e01b8152600401610cba929190611c88565b602060405180830381600087803b158015610cd457600080fd5b505af1158015610ce8573d6000803e3d6000fd5b505050506040513d601f19601f82011682018060405250810190610d0c919061186d565b905080610d4e576040517f08c379a0000000000000000000000000000000000000000000000000000000008152600401610d4590611cec565b60405180910390fd5b50505050565b600060019054906101000a900473ffffffffffffffffffffffffffffffffffffffff1673ffffffffffffffffffffffffffffffffffffffff163373ffffffffffffffffffffffffffffffffffffffff1614610de4576040517f08c379a0000000000000000000000000000000000000000000000000000000008152600401610ddb90611dac565b60405180910390fd5b80600060016101000a81548173ffffffffffffffffffffffffffffffffffffffff021916908373ffffffffffffffffffffffffffffffffffffffff16021790555050565b600060019054906101000a900473ffffffffffffffffffffffffffffffffffffffff1673ffffffffffffffffffffffffffffffffffffffff163373ffffffffffffffffffffffffffffffffffffffff1614610eb8576040517f08c379a0000000000000000000000000000000000000000000000000000000008152600401610eaf90611dac565b60405180910390fd5b600073ffffffffffffffffffffffffffffffffffffffff168173ffffffffffffffffffffffffffffffffffffffff161415610f28576040517f08c379a0000000000000000000000000000000000000000000000000000000008152600401610f1f90611d4c565b60405180910390fd5b80600260006101000a81548173ffffffffffffffffffffffffffffffffffffffff021916908373ffffffffffffffffffffffffffffffffffffffff160217905550600260009054906101000a900473ffffffffffffffffffffffffffffffffffffffff1673ffffffffffffffffffffffffffffffffffffffff1663ad5c46486040518163ffffffff1660e01b815260040160206040518083038186803b158015610fd157600080fd5b505afa158015610fe5573d6000803e3d6000fd5b505050506040513d601f19601f8201168201806040525081019061100991906116d7565b6003600081548110611044577f4e487b7100000000000000000000000000000000000000000000000000000000600052603260045260246000fd5b9060005260206000200160006101000a81548173ffffffffffffffffffffffffffffffffffffffff021916908373ffffffffffffffffffffffffffffffffffffffff16021790555050565b600060019054906101000a900473ffffffffffffffffffffffffffffffffffffffff1673ffffffffffffffffffffffffffffffffffffffff163373ffffffffffffffffffffffffffffffffffffffff161461111f576040517f08c379a000000000000000000000000000000000000000000000000000000000815260040161111690611dac565b60405180910390fd5b80471015611162576040517f08c379a000000000000000000000000000000000000000000000000000000000815260040161115990611ccc565b60405180910390fd5b60008273ffffffffffffffffffffffffffffffffffffffff168260405161118890611c21565b60006040518083038185875af1925050503d80600081146111c5576040519150601f19603f3d011682016040523d82523d6000602084013e6111ca565b606091505b505090508061120e576040517f08c379a000000000000000000000000000000000000000000000000000000000815260040161120590611cec565b60405180910390fd5b505050565b600060019054906101000a900473ffffffffffffffffffffffffffffffffffffffff1673ffffffffffffffffffffffffffffffffffffffff163373ffffffffffffffffffffffffffffffffffffffff16146112a3576040517f08c379a000000000000000000000000000000000000000000000000000000000815260040161129a90611dac565b60405180910390fd5b80600460009054906101000a900473ffffffffffffffffffffffffffffffffffffffff1673ffffffffffffffffffffffffffffffffffffffff166370a08231306040518263ffffffff1660e01b81526004016112ff9190611c36565b60206040518083038186803b15801561131757600080fd5b505afa15801561132b573d6000803e3d6000fd5b505050506040513d601f19601f8201168201806040525081019061134f91906118bf565b1115611390576040517f08c379a000000000000000000000000000000000000000000000000000000000815260040161138790611ccc565b60405180910390fd5b6000600460009054906101000a900473ffffffffffffffffffffffffffffffffffffffff1673ffffffffffffffffffffffffffffffffffffffff1663a9059cbb84846040518363ffffffff1660e01b81526004016113ef929190611c88565b602060405180830381600087803b15801561140957600080fd5b505af115801561141d573d6000803e3d6000fd5b505050506040513d601f19601f82011682018060405250810190611441919061186d565b905080611483576040517f08c379a000000000000000000000000000000000000000000000000000000000815260040161147a90611cec565b60405180910390fd5b505050565b600060019054906101000a900473ffffffffffffffffffffffffffffffffffffffff1681565b600060019054906101000a900473ffffffffffffffffffffffffffffffffffffffff1673ffffffffffffffffffffffffffffffffffffffff163373ffffffffffffffffffffffffffffffffffffffff161461153e576040517f08c379a000000000000000000000000000000000000000000000000000000000815260040161153590611dac565b60405180910390fd5b8060018190555050565b60008054906101000a900460ff1681565b600081836115679190611f1f565b905092915050565b6000818361157d9190611eee565b905092915050565b600061159861159384611e68565b611e37565b905080838252602082019050828560208602820111156115b757600080fd5b60005b858110156115e757816115cd8882611699565b8452602084019350602083019250506001810190506115ba565b5050509392505050565b600081359050611600816120ba565b92915050565b600081519050611615816120ba565b92915050565b60008135905061162a816120d1565b92915050565b600082601f83011261164157600080fd5b8151611651848260208601611585565b91505092915050565b600081359050611669816120e8565b92915050565b60008151905061167e816120e8565b92915050565b600081359050611693816120ff565b92915050565b6000815190506116a8816120ff565b92915050565b6000602082840312156116c057600080fd5b60006116ce848285016115f1565b91505092915050565b6000602082840312156116e957600080fd5b60006116f784828501611606565b91505092915050565b6000806040838503121561171357600080fd5b60006117218582860161161b565b925050602061173285828601611684565b9150509250929050565b60008060006060848603121561175157600080fd5b600061175f868287016115f1565b9350506020611770868287016115f1565b925050604061178186828701611684565b9150509250925092565b6000806040838503121561179e57600080fd5b60006117ac858286016115f1565b92505060206117bd8582860161165a565b9150509250929050565b600080604083850312156117da57600080fd5b60006117e8858286016115f1565b92505060206117f985828601611684565b9150509250929050565b60006020828403121561181557600080fd5b600082015167ffffffffffffffff81111561182f57600080fd5b61183b84828501611630565b91505092915050565b60006020828403121561185657600080fd5b60006118648482850161165a565b91505092915050565b60006020828403121561187f57600080fd5b600061188d8482850161166f565b91505092915050565b6000602082840312156118a857600080fd5b60006118b684828501611684565b91505092915050565b6000602082840312156118d157600080fd5b60006118df84828501611699565b91505092915050565b60006118f48383611900565b60208301905092915050565b61190981611f99565b82525050565b61191881611f99565b82525050565b600061192982611ea9565b6119338185611ec1565b935061193e83611e94565b8060005b83811015611976576119538261209a565b61195d88826118e8565b975061196883611eb4565b925050600181019050611942565b5085935050505092915050565b61198c81611fbd565b82525050565b600061199f600f83611edd565b91507f42616c616e636520746f6f206c6f7700000000000000000000000000000000006000830152602082019050919050565b60006119df601383611edd565b91507f4661696c757265206f6e207472616e73666572000000000000000000000000006000830152602082019050919050565b6000611a1f601883611edd565b91507f4d757374206275792061746c65617374203120746f6b656e00000000000000006000830152602082019050919050565b6000611a5f602b83611edd565b91507f496e73756666696369656e742062616c616e6365206f662041726b796369612060008301527f696e20636f6e74726163740000000000000000000000000000000000000000006020830152604082019050919050565b6000611ac5601583611edd565b91507f416464726573732030206e6f7420616c6c6f77656400000000000000000000006000830152602082019050919050565b6000611b05601383611edd565b91507f4661696c757265206f6e207075726368617365000000000000000000000000006000830152602082019050919050565b6000611b45600083611ed2565b9150600082019050919050565b6000611b5f601383611edd565b91507f537761707065722069732064697361626c6564000000000000000000000000006000830152602082019050919050565b6000611b9f600983611edd565b91507f4e6f742061646d696e00000000000000000000000000000000000000000000006000830152602082019050919050565b6000611bdf600b83611edd565b91507f426c61636b6c69737465640000000000000000000000000000000000000000006000830152602082019050919050565b611c1b81611fe9565b82525050565b6000611c2c82611b38565b9150819050919050565b6000602082019050611c4b600083018461190f565b92915050565b6000606082019050611c66600083018661190f565b611c73602083018561190f565b611c806040830184611c12565b949350505050565b6000604082019050611c9d600083018561190f565b611caa6020830184611c12565b9392505050565b6000602082019050611cc66000830184611983565b92915050565b60006020820190508181036000830152611ce581611992565b9050919050565b60006020820190508181036000830152611d05816119d2565b9050919050565b60006020820190508181036000830152611d2581611a12565b9050919050565b60006020820190508181036000830152611d4581611a52565b9050919050565b60006020820190508181036000830152611d6581611ab8565b9050919050565b60006020820190508181036000830152611d8581611af8565b9050919050565b60006020820190508181036000830152611da581611b52565b9050919050565b60006020820190508181036000830152611dc581611b92565b9050919050565b60006020820190508181036000830152611de581611bd2565b9050919050565b6000602082019050611e016000830184611c12565b92915050565b6000604082019050611e1c6000830185611c12565b8181036020830152611e2e818461191e565b90509392505050565b6000604051905081810181811067ffffffffffffffff82111715611e5e57611e5d61206b565b5b8060405250919050565b600067ffffffffffffffff821115611e8357611e8261206b565b5b602082029050602081019050919050565b60008190508160005260206000209050919050565b600081549050919050565b6000600182019050919050565b600082825260208201905092915050565b600081905092915050565b600082825260208201905092915050565b6000611ef982611fe9565b9150611f0483611fe9565b925082611f1457611f1361203c565b5b828204905092915050565b6000611f2a82611fe9565b9150611f3583611fe9565b9250817fffffffffffffffffffffffffffffffffffffffffffffffffffffffffffffffff0483118215151615611f6e57611f6d61200d565b5b828202905092915050565b600073ffffffffffffffffffffffffffffffffffffffff82169050919050565b6000611fa482611fc9565b9050919050565b6000611fb682611fc9565b9050919050565b60008115159050919050565b600073ffffffffffffffffffffffffffffffffffffffff82169050919050565b6000819050919050565b6000612006612001836120ad565b611f79565b9050919050565b7f4e487b7100000000000000000000000000000000000000000000000000000000600052601160045260246000fd5b7f4e487b7100000000000000000000000000000000000000000000000000000000600052601260045260246000fd5b7f4e487b7100000000000000000000000000000000000000000000000000000000600052604160045260246000fd5b60006120a68254611ff3565b9050919050565b60008160001c9050919050565b6120c381611f99565b81146120ce57600080fd5b50565b6120da81611fab565b81146120e557600080fd5b50565b6120f181611fbd565b81146120fc57600080fd5b50565b61210881611fe9565b811461211357600080fd5b5056fea264697066735822122035bb62738bcaceed48d8c523dcb74b134f876c47cf232b3a33c00852dc82dd5b64736f6c63430008000033",
  "immutableReferences": {},
  "source": "//SPDX-License-Identifier: MIT\r\npragma solidity ^0.8.0;\r\nimport '@openzeppelin/contracts/token/ERC20/IERC20.sol';\r\nimport '@openzeppelin/contracts/utils/math/SafeMath.sol';\r\nimport '@openzeppelin/contracts/utils//Address.sol';\r\nimport '@uniswap/v2-periphery/contracts/interfaces/IUniswapV2Router02.sol';\r\nimport './ArkyciaToken.sol';\r\n\r\n\r\ncontract ArkyciaPresaleContract{\r\n\r\n    using SafeMath for uint256;\r\n    using SafeMath for uint8;\r\n    using Address for address;\r\n\r\n    bool public manualSwapperDisabled = true;\r\n    address public admin;\r\n    //Price in USD\r\n    uint256 price = 13000000000000000;\r\n\r\n    //Price decimal\r\n    uint256 constant priceDecimal = 10**18;\r\n    address constant usdc = 0x2791Bca1f2de4661ED88A30C99A7a9449Aa84174; //To get value in usd\r\n    //Quickswap Router\r\n    IUniswapV2Router02 router = IUniswapV2Router02(0xa5E0829CaCEd8fFDD4De3c43696c57F7D7A678ff);\r\n    address[] path;\r\n    address public arkycia;\r\n    mapping(address => bool) blacklisted;\r\n\r\n    constructor(address _admin, address _arkycia){\r\n        admin = _admin;\r\n        arkycia = _arkycia;\r\n        path = new address[](2);\r\n        path[0] = router.WETH();\r\n        path[1] = usdc;\r\n    }\r\n\r\n    receive() external payable {\r\n\r\n        require(!isBlacklisted(msg.sender), \"Blacklisted\");\r\n        require(!manualSwapperDisabled, \"Swapper is disabled\");\r\n\r\n        if (msg.sender == address(this)){\r\n                return;\r\n            } \r\n        uint256 arkyciaTokenOut = getAmountsOut(msg.value);\r\n        require(arkyciaTokenOut > 0, \"Must buy atleast 1 token\");\r\n        require(IERC20(arkycia).balanceOf(address(this)) >= arkyciaTokenOut, \"Insufficient balance of Arkycia in contract\");\r\n\r\n        bool sent = IERC20(arkycia).transferFrom(\r\n            address(this), \r\n            msg.sender, \r\n            arkyciaTokenOut\r\n            );\r\n        require(sent, \"Failure on purchase\");\r\n    }\r\n\r\n\r\n    /** Get tokens amount out */\r\n    function getAmountsOut(uint256 maticAmt) public view returns(uint256){\r\n        uint256 amountInUSD = router.getAmountsOut(maticAmt, path)[1];\r\n        uint256 arkyciaTokenOut = (amountInUSD.mul(priceDecimal)\r\n                                    .div(price.mul(10**6))).mul(10**18);\r\n        return arkyciaTokenOut;\r\n    }\r\n    function isBlacklisted(address user) public view returns(bool){\r\n        return blacklisted[user];\r\n    }\r\n\r\n    function setBlacklist(address user, bool blacklist) external onlyAdmin{\r\n        blacklisted[user] = blacklist;\r\n    }\r\n\r\n    //Changes price \r\n    function changePriceWithEighteenDecimals(uint256 _price) external onlyAdmin{\r\n        price = _price;\r\n    }\r\n    function getTokenBalance(address token) public view returns(uint256){\r\n        return IERC20(token).balanceOf(address(this));\r\n    }\r\n\r\n    function getArkyciaTokenBalance() public view returns(uint256){\r\n        return getTokenBalance(arkycia);\r\n    }\r\n\r\n    function getMaticBalance() public view returns(uint){\r\n        return address(this).balance;\r\n    }\r\n\r\n    function updateRouter(address _router) external onlyAdmin{\r\n        require(_router!=address(0),\"Address 0 not allowed\");\r\n        router = IUniswapV2Router02(_router);\r\n        path[0] = router.WETH();\r\n    }\r\n\r\n    function withdrawTokens(address token, address to, uint256 amount) external onlyAdmin{\r\n        require(IERC20(token).balanceOf(address(this)) <= amount, \"Balance too low\");\r\n        bool sent = IERC20(token).transfer(to, amount);\r\n        require(sent, \"Failure on transfer\");\r\n    }\r\n\r\n    function withdrawArkyciaTokens(address to, uint256 amount) external onlyAdmin{\r\n        require(IERC20(arkycia).balanceOf(address(this)) <= amount, \"Balance too low\");\r\n        bool sent = IERC20(arkycia).transfer(to, amount);\r\n        require(sent, \"Failure on transfer\");\r\n\r\n    }\r\n\r\n    function withdrawMatic(address payable to, uint256 amount) external onlyAdmin{\r\n        require(address(this).balance >= amount, \"Balance too low\");\r\n        (bool sent, ) = to.call{value: amount}(\"\");\r\n        require(sent, \"Failure on transfer\");\r\n\r\n    }\r\n\r\n    modifier onlyAdmin{\r\n        require(msg.sender == admin, \"Not admin\");\r\n        _;\r\n    }\r\n\r\n    function changeAdmin(address _admin) external onlyAdmin{\r\n        admin = _admin;\r\n    }\r\n\r\n\r\n    function setManualSwapperDisabled(bool disabled) external onlyAdmin{\r\n        manualSwapperDisabled = disabled;\r\n    }\r\n\r\n}",
  "sourcePath": "C:\\Users\\Shivam Agrawal\\Desktop\\Arkycia Final\\contracts\\ArkyciaPresaleContract.sol",
  "compiler": {
    "name": "solc",
    "version": "0.8.0+commit.c7dfd78e.Emscripten.clang"
  },
  "schemaVersion": "3.4.4",
  "updatedAt": "2022-01-12T23:31:07.504Z",
  "networkType": "ethereum",
  "devdoc": {
    "kind": "dev",
    "methods": {},
    "version": 1
  },
  "userdoc": {
    "kind": "user",
    "methods": {
      "getAmountsOut(uint256)": {
        "notice": "Get tokens amount out "
      }
    },
    "version": 1
  }
}